/!! Start of file                                                               
/!! Content type:  RLC                                                          
/!! Sequence:      472                                                          
/!! Records:       355                                                          
/!! Generated:     04/02/2020                                                   
/!! Exporter:      RJIS RjEhrFrs v 4.6.5                                        
   311229993006201030062010APUBLIC              NNNN   Y00800100800100800000800000800000000000000000001200        N   000001002
2TR090120201101201911012019ATWO TOGETHER R/CARD NNNN2TRY00200200200000000000200200000000003000000000001200        YZMO042XXXXXX
2TR100120191502201815022018ATWO TOGETHER R/CARD NNNN2TRY00200200200000000000200200000000003000000000001200        YZMO042XXXXXX
2TR311229991001202010012020ATWO TOGETHER R/CARD NNNN2TRY00200200200000000000200200000000003000000000001200        YZMO042XXXXXX
2TS311229990201201502012015ATWO TOGETHER RCD AGCNNNN2TSY00100100100100000000100100000000001000000000001200        YZPCXXXXXXXXX
ACD311229993006201030062010AACCOMPNIED CHILD DISNNNNACDY0080010010010080000080000080010000000000000000    31122999NZMU000001XXX
AIG180120192609201526092015AANGLIA INTL GROUP   NYNNAIGY9990019990019990009990009990000000000000000000    31122999NWWW060061000
AIG311229991901201919012019AANGLIA INTL GROUP   NYNNAIGY9990019990019990009990009990000000000000000000    31122999NWWW060061000
ANG180120192702201227022012CANGLIA FLAT FARE    NYNNANGY0040010010000000000000000040000000000000000000    31122999NZZZXXX055000
ANG311229991901201919012019CANGLIA FLAT FARE    NYNNANGY0040010010000000000000000040000000000000000000    31122999NZZZXXX055000
ASD180120191201201809062017AMAN APT STAFF DISC  NYNNASDN0010010010010000000010010000000000000000000000    31122999N   099XXXXXX
ASD311229991901201919012019AMAN APT STAFF DISC  NYNNASDN0010010010010000000010010000000000000000000000    31122999N   099XXXXXX
AT1311229990201201102012011A1YR DISABLED PERSONSNNNNAT1Y00200100100100100000200100800000002000000000001200        NZNCXXXXXXXXX
AT2311229991003200910032009A1YR REP CHG DIS PERSNNNNAT2Y00200100100100100000200100800000000000000000001200        NZNEXXXXXXXXX
AT3311229991003200910032009A1YR REP DIS PERS    NNNNAT3Y00200100100100100000200100800000000000000000001200        NZNGXXXXXXXXX
AT4311229990201201102012011A3YR DISABLED PERSONSNNNNAT4Y00200100100100100000200100800000005400000000003600        NZNWXXXXXXXXX
AT5311229991003200910032009A3YR REP CHG DIS PERSNNNNAT5Y00200100100100100000200100800000000000000000003600        NZNXXXXXXXXXX
AT6311229991003200910032009A3YR REP DIS PERS    NNNNAT6Y00200100100100100000200100800000000000000000003600        NZNYXXXXXXXXX
AVC311229992701201627012016AAYLESBURY VALE      YYNNAVCY00100100100100000000100100000000001000000000001200        YZVR021001XXX
B2B311229992004201520042015ACS B2B DISCOUNT     NNNNB2BY00100100100100100000100100000000000000000000001200        N   011XXX000
B34311229990205201902052019AUNIDAYS 34          NNNNB34Y00100100100100100000100100000000000000000000001200        N   226XXXXXX
BA1170820191902201419022014AEMT DISCOUNT C      NNNNBA1Y00100100100100100000100100000000000000000000001200        N   120000000
BA1311229991808201909082019AEMR DISCOUNT C      NNNNBA1Y00100100100100100000100100000000000000000000001200        N   120000000
BA2170820193112201231122012AEMT DISCOUNT B      NNNNBA2Y00100100100100100000100100000000000000000000001200        N   194000000
BA2311229991808201909082019AEMR DISCOUNT B      NNNNBA2Y00100100100100100000100100000000000000000000001200        N   194000000
BA3170820193112201331122013AEMT DISCOUNT A      NNNNBA3Y00100100100100100000100100000000000000000000001200        N   195000000
BA3311229991808201909082019AEMR DISCOUNT A      NNNNBA3Y00100100100100100000100100000000000000000000001200        N   195000000
BA4170820193112201231122012AEMT DISCOUNT D      NNNNBA4Y00100100100100100000100100000000000000000000001200        N   130000000
BA4311229991808201909082019AEMR DISCOUNT D      NNNNBA4Y00100100100100100000100100000000000000000000001200        N   130000000
BA5170820192004201220042012AEMT DISCOUNT E      NNNNBA5Y00800300100100700200800300000000000000000000001200        N   142000000
BA5311229991808201909082019AEMR DISCOUNT E      NNNNBA5Y00800300100100700200800300000000000000000000001200        N   142000000
BB1110620192004201220042012ASCR CORP DISCOUNT 01NNNNBB1Y0010010010010000000010010000000000000000000000    31122999N   132XXXXXX
BB1190720191206201912062019ANHS Staff Discount  NYNNBB1Y0040010010010000000040000040000000000000000000    31122999N   132XXXXXX
BB1311229992007201920072019ANHS Staff Discount  NYNNBB1Y0040010010010000000040000040000000000000000000    31122999N   132XXXXXX
BB2311229992004201220042012ASCR CORP DISCOUNT 02NNNNBB2Y0010010010010000000010010000000000000000000000    31122999N   135XXXXXX
BB3311229992004201220042012ASCR CORP DISCOUNT 3 NNNNBB3Y0010010010010000000010010000000000000000000000    31122999N   136XXXXXX
BU1180120192609201526092015ABRISTOL UNI 10%     NYNNBU1Y00100100100100100000100100000000000000000000001200        NZZZ148000000
BU1311229991901201919012019ABRISTOL UNI 10%     NYNNBU1Y00100100100100100000100100000000000000000000001200        NZZZ148000000
BU2311229992004201220042012ABRISTOL UNI 20%     NNNNBU2Y00100100100100100000100100000000000000000000001200        NZZZ149000000
BUD180120192004201220042012ABUCKS CC DISCOUNT   NYNNBUDY0010010010000010000010000000000099999900000000    31122999N   183XXXXXX
BUD311229991901201919012019ABUCKS CC DISCOUNT   NYNNBUDY0010010010000010000010000000000099999900000000    31122999N   183XXXXXX
BUO311229990808201908082019AWMT ONLINE 10% DISC NNNNBUOY00200100100100100000200100000000000000000000001200        N   231XXXXXX
BUW311229993105201931052019ABUSINESS 10% (WMT)  NNNNBUWY00200100100100100000200100000000000000000000001200        N   229XXXXXX
BUY311229993105201931052019ATOURISTS 20% (WMT)  NNNNBUYY00200100100100100000200100000000000000000000001200        N   230XXXXXX
C15311229991806201815062018ALNER CORP 15        NNNNC15N00200100100100100000200100000000000000000000001200        N   207001000
C20311229992004201220042012ACHARITYLINE 20      NNNNC20Y00400100100100300000400100000000000000000000001200        N   189000000
C25311229991806201815062018ALNER CORP 25        NNNNC25N00200100100100100000200100000000000000000000001200        N   214001000
C30311229991806201815062018ALNER CORP 30        NNNNC30N00200100100100100000200100000000000000000000001200        N   208001000
C35311229991806201815062018ALNER CORP 35        NNNNC35N00200100100100100000200100000000000000000000001200        N   215001000
C40311229991806201815062018ALNER CORP 40        NNNNC40N00200100100100100000200100000000000000000000001200        N   209001000
C45311229991806201815062018ALNER CORP 45        NNNNC45N00200100100100100000200100000000000000000000001200        N   210001000
C50190720190109201501092015ACLUB 50             NYNNC50Y00100100100100100000100100000000000000000000001200        N   014XXX000
C50311229992007201920072019ACLUB 50             NYNNC50Y00100100100100100000100100000000000000000000001200        N   014XXX000
C55311229991806201815062018ALNER CORP 55        NNNNC55N00200100100100100000200100000000000000000000001200        N   217001000
C60311229991806201815062018ALNER CORP 60        NNNNC60N00200100100100100000200100000000000000000000001200        N   218001000
C65311229991806201815062018ALNER CORP 65        NNNNC65N00200100100100100000200100000000000000000000001200        N   219001000
C70311229991806201815062018ALNER CORP 70        NNNNC70N00200100100100100000200100000000000000000000001200        N   220001000
C75311229991806201815062018ALNER CORP 75        NNNNC75N00200100100100100000200100000000000000000000001200        N   221001000
CCC180120192609201426092014ACRAVEN COLLEGE 25%  NYNNCCCY0010010010010000000010010000000000000000000000    31122999N   098XXXXXX
CCC180420191901201919012019ACRAVEN COLLEGE 25%  NYNNCCCY0010010010010000000010010000000000000000000000    31122999N   098XXXXXX
CCC311229991904201919042019ACRAVEN COLLEGE 25%  NYNNCCCY0010010010010000000010010000000000000000000000    31122999N   098XXXXXX
CRC010120201901201919012019ACAMBRIANRAILCARD    NYNNCRCY00800100100100000000800100200000001000000000001200        YZNN021097000
CRC180120191003201810032018ACAMBRIANRAILCARD    NYNNCRCY00800100100100000000800100200000001000000000001200        YZNN021097000
CRC311229990201202029112019ACAMBRIANRAILCARD    NYNNCRCY00800100100100000000800100200000001250000000001200        YZNN021097000
CTD180120190201201802012018ACOTSWOLD LINE RCD   NYYNCTDY00100100100100100000100100000000000850000000001200        YZNM021000000
CTD180520191901201919012019ACOTSWOLD LINE RCD   NYYNCTDY00100100100100100000100100000000000850000000001200        YZNM021000000
CTD311229991905201921042019ACOTSWOLD LINE RCD   NYYNCTDY00100100100100100000100100000000000995000000001200        YZNM021000000
CTE180520191601201816012018AREP COTSWOLD LNE RCDNYNNCTEY00100100100100100000100100000000000000000000001200        Y9ZCXXXXXX000
CTE311229991905201921042019AREP COTSWOLD LNE RCDNYNNCTEY00100100100100100000100100000000000000000000001200        Y9ZCXXXXXX000
CUR240920190709201907092019AMY CUMBRIA CARD     NYNNCURN0000000010010000000000000000000000000000000000    31122999N   227XXXXXX
CUR311229992509201925092019AMY CUMBRIA CARD     NYNNCURN00100100100100100000100100000000000000000000001200        N   227XXXXXX
D05311229992004201220042012ACORPORATE E         NNNND05Y01000100100100900001000100000000000000000000001200        N   144000000
D08311229992004201220042012ACORPORATE F         NNNND08Y00200100100100000000200100000000000000000000001200        N   138000000
D10311229991910201619102016ACORPORATE A         NNNND10Y00200100100100100000200100000000000000000000001200        N   004062000
D11311229992004201220042012AWEB DISCOUNT ADULT  NNNND11Y00200100100100000000200100700000000000000000001200        N   156157000
D13311229992908201429082014ACORPORATE DISCOUNT SNNNND13Y0010010010010000000010010000000000000000000000    31122999N   153XXXXXX
D15311229991910201619102016ACORPORATE B         NNNND15Y00200100100100100000200100000000000000000000001200        N   058065000
D20311229992604201426042014ACORPORATE C         NNNND20Y00200100100100100000200100000000000000000000001200        N   007001000
D23311229992004201220042012ACORPORATE G         NNNND23Y00200100100100100000200100000000000000000000001200        N   118000000
D25311229992310201623102016ACORPORATE D         NNNND25Y00200100100100100000200100000000000000000000001200        N   106008000
D30311229992310201623102016ACONCESS 30%         NNNND30Y00200100100100100000200100000000000000000000001200        N   133026000
D34311229992004201220042012ACONCESS 34%         NNNND34Y0020010010010000000020010000000000000000000000    31122999N   141XXXXXX
D47311229992004201220042012ACORPORATE H         NNNND47Y00200100100100100000200100000000000000000000001200        N   121000000
D50311229992004201220042012ACONCESS 50%         NNNND50Y0020010010010000000020010000000000000000000000    31122999N   147XXXXXX
D55311229992004201220042012CWEB DISCOUNT CHILD  NNNND55Y00100100100100000000000000100000000000000000001200        N   000157000
D75311229992004201220042012CCONCESS 75%         NNNND75Y0010010010010000000000000010000000000000000000    31122999N   XXX154XXX
DAD311229992004201220042012ADISCOUNT ADULT A    NNNNDADY00200100100100100000200100000000000000000000001200        N   004000000
DAT311229992004201220042012ADISCOUNT ADULT B    NNNNDATY00100100100100100000100100000000000000000000001200        N   007000000
DBK311229991201201827012016ADEREHAM BUS 16-19   NNNNDBKY0010010010010000000010010000000000000000000000    31122999N   021XXXXXX
DBL180120193107201531072015ADERBYSHIRE B-LINE   NYNNDBLY0010010010000010000010000010000099999900000000    31122999N   090001XXX
DBL311229991901201919012019ADERBYSHIRE B-LINE   NYNNDBLY0010010010000010000010000010000099999900000000    31122999N   090001XXX
DCG311229992701201627012016ADVN & CNWALL CRD GLDNYNNDCGN00600100100100100000200000400000000000000000001200        N   123124XXX
DCP180120191201201820102015ADURHAM CONCESSION   YYNYDCPY00100100800100000000100100000000000000000000001200        N   027001000
DCP311229991901201919012019ADURHAM CONCESSION   YYNYDCPY00100100800100000000100100000000000000000000001200        N   027001000
DCQ180520192812201728122017AREP DVN&CRNWAL RCD  NYNNDCQY00100100100100100000100100000000000000000000001200        Y9ZCXXXXXX000
DCQ311229991905201921042019AREP DVN&CRNWAL RCD  NYNNDCQY00100100100100100000100100000000000000000000001200        Y9ZCXXXXXX000
DCR180520191506201815062018ADEVON CORNWALL RCD  NYNNDCRY00600100100100100000200000400000001100000000001200        YZMC021022XXX
DCR311229991905201909042019ADEVON CORNWALL RCD  NYNNDCRY00600100100100100000200000400000001200000000001200        YZMC021022XXX
DCT311229991306201813062018ADISCOUNT AUTHORITY  NNNNDCTY0040010010010010000020000010000000000000000000    31122999N   018019XXX
DGU311229992409201424092014AGREAT WESTERN 5     NNNNDGUY00100100100100100000100100000000000000000000001200        N   143000000
DGV311229991106201211062012AGREAT WESTERN 10    NNNNDGVY00100100100100100000100100000000000000000000001200        N   146000000
DGW311229990605201406052014AGREAT WESTERN 15    NNNNDGWY00100100100100100000100100000000000000000000001200        N   131000000
DGX311229990605201406052014AGREAT WESTERN 20    NNNNDGXY00100100100100100000100100000000000000000000001200        N   152000000
DGY311229992004201220042012AGREAT WESTERN 50    NNNNDGYY00100100100100100000100100000000000000000000001200        N   155000000
DGZ311229991505201215052012AGREAT WESTERN 75    NNNNDGZY00100100100100100000100100000000000000000000001200        N   158000000
DIC090120201101201911012019CDISABLED CHILD      YNNNDICY00200100100100100000100000400100002000000000001200        NZMM063064XXX
DIC100120191406201814062018CDISABLED CHILD      YNNNDICY00200100100100100000100000400100002000000000001200        NZMM063064XXX
DIC311229991001202010012020CDISABLED CHILD      YNNNDICY00200100100100100000100000400100002000000000001200        NZMM063064XXX
DIP311229990201201102012011A1YR DISABLED PERSONSNNNNDIPY00200100100100100000200100800000002000000000001200        NZNHXXXXXXXXX
DIR311229990201201502012015ADISABLED RCD AGC    NNNNDIRY00100100100100000000100100000000001000000000001200        YZPEXXXXXXXXX
DIS090120201101201911012019ADISABLED ADULT      YNNNDISY00200100100100100000200100400000002000000000001200        NZMM063064XXX
DIS100120191406201814062018ADISABLED ADULT      YNNNDISY00200100100100100000200100400000002000000000001200        NZMM063064XXX
DIS311229991001202010012020ADISABLED ADULT      YNNNDISY00200100100100100000200100400000002000000000001200        NZMM063064XXX
DIT311229991610200816102008A1YR REP CHG DIS PERSNNNNDITY00200100100100100000200100800000000000000000001200        NZNIXXXXXXXXX
DIU311229991109200811092008A1YR REP DIS PERS    NNNNDIUY00200100100100100000200100800000000000000000001200        NZNUXXXXXXXXX
DIV311229990201201102012011A3YR DISABLED PERSONSNNNNDIVY00200100100100100000200100800000005400000000003600        NZNJXXXXXXXXX
DIW311229991610200816102008A3YR REP CHG DIS PERSNNNNDIWY00200100100100100000200100800000000000000000003600        NZNKXXXXXXXXX
DIX311229991109200811092008A3YR REP DIS PERS    NNNNDIXY00200100100100100000200100800000000000000000003600        NZNVXXXXXXXXX
DRD180420191506201815062018ADALES RAILCARD      YYNNDRDY00500100100000100100100000400000001000000000001200        YZMZ024112XXX
DRD311229991904201919042019ADALES RAILCARD      YYNNDRDY00500100100000100100100000400000001000000000001200        YZMZ024112XXX
DWF180120192004201220042012ADERBYSHIRE WAYFARER NYNNDWFY0010010010000020000010000010000099999900000000    31122999N   091001XXX
DWF311229991901201919012019ADERBYSHIRE WAYFARER NYNNDWFY0010010010000020000010000010000099999900000000    31122999N   091001XXX
E07311229992004201220042012ACHILTERN CORPORATE ANNNNE07Y00100100100100100000100100000000000000000000001200        N   145000000
E10311229992004201220042012ACHILTERN CORPORATE BNNNNE10Y00100100100100100000100100000000000000000000001200        N   169000000
E12311229992004201220042012ACHILTERN CORPORATE CNNNNE12Y00100100100100100000100100000000000000000000001200        N   174000000
E30311229992004201220042012AIEC CORPORATE J 30% NNNNE30Y00200100100100100000200100000000000000000000001200        N   120000000
EDU311229991406201814062018AEDUCATIONAL CONCESS.YNNNEDUY00100100100100100000100000100000000000000000001200        N   051052XXX
ENC311229990209201302092013AENCTP 34% DISCOUNT  NYNNENCY00100000100000100000100100000000000000000000001200        N   032XXXXXX
EST180120190707201507072015AEASIT GWR           NYNNESTY0010010010010000000010010000000000000000000000    31122999N   102XXXXXX
EST311229991901201919012019AEASIT GWR           NYNNESTY0010010010010000000010010000000000000000000000    31122999N   102XXXXXX
EVC311229991506201815062018AESK VALLEY RAILCARD YYNNEVCY00500100100000100100100000400000001000000000001200        YZWT024025XXX
FAM090120201101201911012019AFAMILY & FRIENDS RCDNNYNFAMY00800100200000300000400000400000003000000000001200        YZMK009010XXX
FAM100120191406201814062018AFAMILY & FRIENDS RCDNNYNFAMY00800100200000300000400000400000003000000000001200        YZMK009010XXX
FAM311229991001202010012020AFAMILY & FRIENDS RCDNNYNFAMY00800100200000300000400000400000003000000000001200        YZMK009010XXX
FAN311229990201201502012015AFAM& FRIENDS RCD AGCNNNNFANY00100100100100000000100100000000001000000000001200        YZPFXXXXXXXXX
FCC311229992004201220042012AFCC SEASON PASS     NNNNFCCY0010010010010010000010000000000000000000000000    31122999N   150XXXXXX
FCT311229991506201815062018AFIFE CONCESSIONARY  YYYYFCTY00800100100100100100800000800000000000000000001200        N   084085XXX
FDM311229991408199814081998AFREEDOM PASS        NNNNFDMY0010010010010000000010010000000000000000000000    31122999NZZZ000000000
FIP311229990809201508092015AFIP DISCOUNT 50%    NNNNFIPY00100100100000100000100000100000000000000000001200        N   161164000
FIR311229990809201508092015AFIP DISCOUNT 75%    NNNNFIRY00100100100000100000100000100000000000000000001200        N   167170000
G5O010720192301201923012019ACLUB 50 GA - ONLINE NYNNG5OY00800100100100000000800100400099999999000000001200        YZNZ204001XXX
G5O180120192309201723092017ACLUB 50 GA - ONLINE NYNNG5OY00800100100100000000800100400099999999000000001200        YZNZ204001XXX
G5O220120191901201919012019ACLUB 50 GA - ONLINE NYNNG5OY00800100100100000000800100400099999999000000001200        YZNZ204001XXX
G5O311229990207201902072019ACLUB 50 GA - ONLINE NYNNG5OY00800100100100000000800100400099999999000000001200        YZNZ204001XXX
G5S010720193009201730092017ACLUB 50 GA - STATIONNYNNG5SY00800100100100000000800100400099999999000000001200        YZNZ203001XXX
G5S311229990207201902072019ACLUB 50 GA - STATIONNYNNG5SY00800100100100000000800100400099999999000000001200        YZNZ203001XXX
G5T010720192809201728092017AGA CLUB50- TEMP CARDNYNNG5TY0080010010010000000080010040000000200000000000    31122999YZNZXXX001XXX
G5T311229990207201902072019AGA CLUB50- TEMP CARDNYNNG5TY0080010010010000000080010040000000200000000000    31122999YZNZXXX001XXX
GCC311229991201201820042012AGC COMMUNITY CARD   NNNNGCCN0010010010010000000010010000000000000000000000    31122999N   198XXXXXX
GCM311229991507201015072010AGC 16-25 RAILCARD   NNNNGCMY00800100100100100000800100800000002600000000001200        NZNBXXXXXXXXX
GCN311229991507201015072010AGC F&F RAILCARD     NNNNGCNY00800100200000300000400000400000002600000000001200        NZNDXXXXXXXXX
GCO311229991507201015072010AGC SENIOR RAILCARD  NNNNGCOY00800100100100000000800100400000002600000000001200        NZNFXXXXXXXXX
GEA010120190201201803112018AGAT STAFF DISCOUNT ANYNNGEAY00100100100000100000100000000000011000000000001200        YZWA093XXXXXX
GEA010120200201201902112019AGAT STAFF DISCOUNT ANYNNGEAY00100100100000100000100000000000011500000000001200        YZWA093XXXXXX
GEA311229990201202029112019AGAT STAFF DISCOUNT ANYNNGEAY00100100100000100000100000000000012000000000001200        YZWA093XXXXXX
GEP010120192206201322062013AGAT EX PARTNERS CARDNYNNGEPY00100100100000100000100000000000002000000000001200        YZWR126XXXXXX
GEP311229990201201905122018AGAT EX PARTNERS CARDNYNNGEPY00100100100000100000100000000000999999000000001200        YZWR126XXXXXX
GEQ010120190201201803112018AGAT STAFF DISCOUNT QNYNNGEQY00100100100000100000100000000000003000000000000300        YZWA093XXXXXX
GEQ010120200201201902112019AGAT STAFF DISCOUNT QNYNNGEQY00100100100000100000100000000000003200000000000300        YZWA093XXXXXX
GEQ311229990201202029112019AGAT STAFF DISCOUNT QNYNNGEQY00100100100000100000100000000000003300000000000300        YZWA093XXXXXX
GPX311229992004201820042018AXC GROUP            NNNNGPXY9990109990019990009990009990000000000000000000    31122999N   222223XXX
GRP311229991306201813062018AGROUP               NNNNGRPY9990109990019990009990009990000000000000000000    31122999NWWW060061XXX
GS3311229990810201408102014AGROUPSAVE           NNNNGS3Y0090030010010080020090030000000000000000000000    31122999NZZZ030XXXXXX
GSU311229991806201815062018ALNER SMALL GP(STNS) NNNNGSUY00900300100100900000900000900000000000000000001200        NZZZ077080000
GU3110720191109201411092014ASMALL GROUP 3       NNNNGU3Y0090030010010020020030030060000000000000000000    31122999N   172XXXXXX
GU3311229991207201912072019ASMALL GROUP 3       NNNNGU3Y0090030010010020020030030060000000000000000000    31122999N   172190XXX
GU4110720191109201411092014ASMALL GROUP 4       NNNNGU4Y0120040010010030030040040080000000000000000000    31122999N   186XXXXXX
GU4311229991207201912072019ASMALL GROUP 4       NNNNGU4Y0120040010010030030040040080000000000000000000    31122999N   186190XXX
GUC311229991405201414052014CSMALL GROUP CH      NNNNGUCY0040010000000000000000000040010000000000000000    31122999N   000190XXX
GWR311229991201201820042012AGWR 5% CORPORATE    NNNNGWRN0010010010010000000010010000000000000000000000    31122999N   180XXXXXX
HAP311229991605201816052018AHEATHROW A PARTNER  NYNNHAPY0010010010010000000010010000000000000000000000    31122999N   206XXXXXX
HBD311229990205201902052019AHOMEBUILDERS 10%    NNNNHBDY00200100100100100000200100000000000000000000001200        N   041XXX000
HCC311229990506201705062017AN LINCS CONC 34     YYYNHCCY00200100200100100000200100000000000000000000001200        N   046XXXXXX
HCS311229990506201705062017AN LINCS CONC 50     YYYNHCSY00200100200100100000200100000000000000000000001200        N   045XXXXXX
HCT311229991506201815062018AHIGHLAND CONCESSION YYYYHCTY00800100100100800000800100800000000000000000001200        N   078079XXX
HMF040620191903201919032019ARAILCARD            YNYNHMFY00800100800000000000800000800000000000000000001200        N   012013XXX
HMF060120200109201905062019ARAILCARD            YNYNHMFY00800100800000000000800000800000000000000000001200        N   012013XXX
HMF090120200701202007012020ARAILCARD            YNYNHMFY00800100800000000000800000800000000000000000001200        N   012013XXX
HMF100120190109201814062018ARAILCARD            YNYNHMFY00800100800000000000800000800000000000000000001200        N   012013XXX
HMF150120191101201911012019ARAILCARD            YNYNHMFY00800100800000000000800000800000000000000000001200        N   012013XXX
HMF180320191601201916012019ARAILCARD            YNYNHMFY00800100800000000000800000800000000000000000001200        N   012013XXX
HMF300620190506201905062019ARAILCARD            YNYNHMFY00800100800000000000800000800000000000000000001200        N   012013XXX
HMF300620201001202010012020ARAILCARD            YNYNHMFY00800100800000000000800000800000000000000000001200        N   012013XXX
HMF310820190107201911062019ARAILCARD            YNYNHMFY00800100800000000000800000800000000000000000001200        N   012013XXX
HMF310820200107202010012020ARAILCARD            YNYNHMFY00800100800000000000800000800000000000000000001200        N   012013XXX
HMF311229990109202010012020ARAILCARD            YNYNHMFY00800100800000000000800000800000000000000000001200        N   012013XXX
HOW010120202007201920072019AHEART OF WALES RC   NYNNHOWY00300100100100000000100100200000001000000000001200        YZNO021097XXX
HOW190720190201201820072019AHEART OF WALES RC   NYNNHOWY00300100100100000000100100200000001000000000001200        YZNO021097XXX
HOW311229990201202029112019AHEART OF WALES RC   NYNNHOWY00300100100100000000100100200000001250000000001200        YZNO021097XXX
HRC010120191311201813112018AHIGHLAND RAILCARD   NYNNHRCY00300100100100000000100100200000000900000000001200        YZMG027097XXX
HRC311229990201201912122018AHIGHLAND RAILCARD   NYNNHRCY00300100100100000000100100200000001500000000001200        YZMG027097XXX
IRD311229991306201813062018AINTERRAIL CARD (70) NNNNIRDY00800100100100000000800100400000000000000000000100        N   073001XXX
ISI311229991605201816052018AISIC Discount (HEX) NYNNISIY0010010010010000000010010000000000000000000000    31122999N   212XXXXXX
IWC311229992004201220042012AISLANDER CARD       NYYNIWCY0010010000000000000000000010000000000000000000    31122999N   108109XXX
IWR311229992004201220042012AISLAND RESIDENT CARDNYNNIWRY0010010010000010000010010000000000000000000000    31122999N   105XXXXXX
JCP311229991003201610032016AJCP DISCOUNT CARD   NNNNJCPY00100100100100000000100100000000000000000000000300        N   057XXXXXX
JSD311229990906201709062017AJOBSEEKERS TPE DIS  NNNNJSDY00100100100100100000100100000000000000000000001200        N   119XXX000
JUV311229991306201813062018CJUVENILE            NNNNJUVY0010010010010010000000000010000000000000000000    31122999NZZZ054055XXX
KAN311229991101201311012013ANOTT KANGAROO 50%   NYNNKANY0010010010000010000010000000000099999900000000    31122999N   181XXXXXX
KSC311229992403201824032018CKENT SCHOLARS CHILD NYNNKSCN0010010010010000000000000010010000000000000000    31122999N   XXX175XXX
KSJ311229992403201824032018AKENT SCHOLAR JUNIOR NYNNKSJN0010010000000000000010010000000000000000000000    31122999N   096XXXXXX
L34311229991809201418092014ANE LINCS CONC 34    YYYNL34Y00200100200100100000200100000000000000000000001200        N   056XXXXXX
L50311229991809201418092014ANE LINCS CONC 50    YYYNL50Y00200100200100100000200100000000000000000000001200        N   081XXXXXX
LCS311229992010201520102015ALEICESTER CONCESSIONYYYNLCSY00100100100100000000100100000000000000000000001200        N   027028000
LCT190720191506201815062018ALOTHIAN CONCESSION  YYYYLCTY00800100100100800000800100800000000000000000001200        N   072001XXX
LCT311229992007201920072019ALOTHIAN CONCESSION  YYYYLCTY00800100100100800000800100800000000000000000001200        N   072001XXX
LUR010720190809201508092015A16+ OYSTER PHOTOCARDNYNNLURY0010010010010000000010010000000000000000000000    31122999N   076XXXXXX
LUR311229990207201902072019A16+ OYSTER PHOTOCARDNYNNLURY0010010010010000000010010000000000000000000000    31122999N   076XXXXXX
LUS010720192004201220042012A18+ STUDNT OYST PHCDNYNNLUSY0010010010010000000010010000000000000000000000    31122999N   075XXXXXX
LUS311229990207201902072019A18+ STUDNT OYST PHCDNYNNLUSY0010010010010000000010010000000000000000000000    31122999N   075XXXXXX
MCT311229991506201815062018AMANCHESTER CONCESS. YYYYMCTY0080010080010000000080010080000000000000000000    31122999N   027001XXX
MED311229991212201712122017AMEDWAY SCHOLAR CARD NYNNMEDN0010010010010000000010010000000000000000000000    31122999N   168XXXXXX
MGP311229990201201602012016AMERSEYRAIL GROUPSAVENYNNMGPY9990109990019990009990009990000000000000000000    31122999N   110113XXX
MOD311229991406201814062018AWARRANT             YNNNMODY0050010020010030000020000040000000000000000000    31122999N   066067XXX
MVS070820192010201520102015AMARSTON VALE SENIOR NYNNMVSY0010010010010000000010010000000000000000000000    31122999NXXX027XXXXXX
MVS311229990808201908082019AMARSTON VALE SENIOR NYNNMVSY0010010010010000000010010000000000000000000000    31122999NXXX027XXXXXX
NCC311229991506201815062018ANOTTS CONCESSION    NYNNNCCY0010010010000000000010000010000099999900000000    31122999N   XXX094XXX
NCP311229992804201828042018ANETWORK RAILCARD AGCNNNNNCPY00100100100100000000100100000000001000000000001200        YZMHXXXXXX000
NEW010720192301201923012019ANETWORK RAILCARD    NYYYNEWY00800100100000300000400000400000003000000000001200        YZMU048049XXX
NEW090120200207201902072019ANETWORK RAILCARD    NYYYNEWY00800100100000300000400000400000003000000000001200        YZMU048049XXX
NEW100120191406201814062018ANETWORK RAILCARD    NYYYNEWY00800100100000300000400000400000003000000000001200        YZMU048049XXX
NEW150120191101201911012019ANETWORK RAILCARD    NYYYNEWY00800100100000300000400000400000003000000000001200        YZMU048049XXX
NEW210120191601201916012019ANETWORK RAILCARD    NYYYNEWY00800100100000300000400000400000003000000000001200        YZMU048049XXX
NEW220120192201201922012019ANETWORK RAILCARD    NYYYNEWY00800100100000300000400000400000003000000000001200        YZMU048049XXX
NEW311229991001202010012020ANETWORK RAILCARD    NYYYNEWY00800100100000300000400000400000003000000000001200        YZMU048049XXX
NEX311229990506201811072017ANEXUS EMPLOYEE      NNNNNEXY00800100100100300000400000400000000000000000001200        N   200201000
NGC010720191101201911012019AANNUAL GOLD CARD    YYYYNGCY00800000100100300000400000800000000000000000001200        NZMH036037XXX
NGC090120200207201902072019AANNUAL GOLD CARD    YYYYNGCY00800000100100300000400000800000000000000000001200        NZMH036037XXX
NGC100120191406201814062018AANNUAL GOLD CARD    YYYYNGCY00800000100100300000400000800000000000000000001200        NZMH036037XXX
NGC311229991001202010012020AANNUAL GOLD CARD    YYYYNGCY00800000100100300000400000800000000000000000001200        NZMH036037XXX
NSC311229992004201220042012ANSC SEASON PASS     NNNNNSCY0010010010010010000010000000000000000000000000    31122999N   192XXXXXX
NUS311229992010201820102018ATOTUM NUS EXTRA     NNNNNUSY00100100100100100000100100000000000000000000001200        N   125XXX000
OC5190720190109201501092015AONLINE CLUB 50      NYNNOC5Y00100100100100100000100100000000000000000000001200        N   020XXX000
OC5311229992007201920072019AONLINE CLUB 50      NYNNOC5Y00100100100100100000100100000000000000000000001200        N   020XXX000
P20311229991806201815062018ALNER CORP 20        NNNNP20N00200100100100100000200100000000000000000000001200        N   213001000
P50311229991806201815062018ALNER CORP 50        NNNNP50N00200100100100100000200100000000000000000000001200        N   216001000
PBR010120201003201810032018APEMBROKERAILCARD    NYYYPBRY00800100100100000000800100200000001000000000001200        YZNP021097XXX
PBR311229990201202029112019APEMBROKERAILCARD    NYYYPBRY00800100100100000000800100200000001250000000001200        YZNP021097XXX
PD4311229990703201207032012APROMO DISCOUNT 40   NNNNPD4Y0010010010000010000010010000000000000000000000    31122999N   082000000
PD5311229991008201610082016APROMO DISCOUNT 50   NNNNPD5Y0010010010000010000010010010000000000000000000    31122999N   070127000
PRD311229991306201813062018ASTAFF T/CARD RETIREDYNYNPRDY00500100200000300000100000400000000000000000001200        N   015016XXX
PRV311229991306201813062018ASTAFF TRAVEL CARD   YNYNPRVY00500100200100300000200000400000000000000000001200        N   015016XXX
R2T311229991601201816012018AREP TTOGETHER R/CARDNNNNR2TY00200200200000000000200200000000000000000000001200        YZMTXXXXXX000
RCK311229992004201220042012AUNICARD KERNOW      YYYYRCKY00100100100100000000100000000000000000000000001200        NZZZ128000000
RES311229991701200217012002ARAIL EUROP SENIOR   YNNNRESY00100000000000000000100000000000000500000000001200        N   000000000
RFF311229991403201214032012AREP FAM&FRIENDS RCD NNYNRFFY00800100200000300000400000400000000000000000001200        YZCBXXXXXXXXX
RNW311229992609201526092015AREP NETWORK RAILCARDNNYYRNWY00800100100000300000400000400000000000000000001200        YZCDXXXXXXXXX
ROV311229992606201226062012AGLASGOW CONF DISC   NYNNROVY0010010010010000000010010000000000000000000000    31122999N   184XXXXXX
RSN311229991403201214032012AREP SENIOR RAILCARD YNNNRSNY00800100100100000000800100400000000000000000001200        YZCCXXXXXXXXX
RYP311229991403201214032012AREP 16-25 RAILCARD  YNYNRYPY00800100100100000000800100800000000000000000001200        YZCAXXXXXXXXX
S50291120191806201815062018ALNER SSS 50%        NNNNS50Y00100000100000100000100000100000000000000000001200        N   083086XXX
S50301120193011201929112019ALNER SSS 50%        NNNNS50Y00100000100000100000100000100000000000000000001200        N   000XXXXXX
SCC311229992010201520102015ACOUNTY DISCOUNT CODENNNNSCCY00100000100000100000100100000000000000000000001200        NZZZ027XXXXXX
SCD180420192609201426092014ASHIPLEY COLLEGE 25% NYNNSCDY0010010010010000000010010000000000000000000000    31122999N   104XXXXXX
SCD311229991904201919042019ASHIPLEY COLLEGE 25% NYNNSCDY0010010010010000000010010000000000000000000000    31122999N   104XXXXXX
SCT311229991506201815062018ASPTE CONCESSIONARY  YYYYSCTY00800100100100800000800100800000000000000000001200        N   087088XXX
SFC311229991506201815062018ASPTE FERRY CARD     YYNYSFCY0080010010010080000080010080000000000000000000    31122999N   087088XXX
SGB311229990507201705072017AGROUP DISCOUNT TPE  NNNNSGBY00900300100100900000900000900000000000000000001200        N   122199XXX
SGU311229991806201815062018ALNER SMALL GP (WEB) NNNNSGUY00900300100100900000900000900000000000000000001200        NZZZ134137000
SNA311229992004201220042012ASOUTHERN ADVENTURE  NNNNSNAY0050020010000010010010000040010000000000000000    31122999N   139140XXX
SRN090120201101201911012019ASENIOR RAILCARD     YNNNSRNY00800100100100000000800100400000003000000000001200        YZME006001XXX
SRN100120191406201814062018ASENIOR RAILCARD     YNNNSRNY00800100100100000000800100400000003000000000001200        YZME006001XXX
SRN311229991001202010012020ASENIOR RAILCARD     YNNNSRNY00800100100100000000800100400000003000000000001200        YZME006001XXX
SRO311229990201201502012015ASENIOR RAILCARD AGC NNNNSROY00100100100100000000100100000000001000000000001200        YZPGXXXXXXXXX
SRS311229990212201702122017ASENIOR SAVE RAILCARDNYNNSRSY00100100100000100000100100000000000000000000001200        NZZZ027XXXXXX
SRY190320190109201708092015ASCOTTISH YOUTH RCD  NYNNSRYY00800100100100000000800100800000002400000000001200        YZNL117001XXX
SRY311229992003201920032019ASCOTTISH YOUTH RCD  NYNNSRYY00800100100100000000800100800000002400000000001200        YZNL117001XXX
SSD311229992004201220042012ASTRATHCLYDE SCHOOLS NNNNSSDY08000108000108000008000008000000000000000000001200        N   162160000
SSP311229991506201815062018ASY STUDENT PASS     YYYYSSPY0010010010010000000010010000000000000000000000    31122999N   027XXXXXX
STC311229992010201520102015CFUNTRACKERS RAILCARDNYNNSTCY00900100100100900100900100900000000500000000001200        YBDY027028000
STF311229992004201220042012ASWINDON TOWN FC DISCNNNNSTFY00800100100100100000800000100000000000000000001200        N   177178000
STL311229990311201703112017ASEASON LOYALTY DISC NYNNSTLY00400100100100300000400100300000000000000000001200        N   129151000
SUR311229991201201820102015ASUFFOLK RAILCARD    NNNNSURY0010010010010000000010010000000000000000000000    31122999N   027XXXXXX
SWD170920192807201528072015ASWT EASIT DISCOUNT  NYNNSWDY00100000100000100000100100000000000000000000001200        N   115XXXXXX
SWD311229991809201918092019ASWR EASIT DISCOUNT  NYNNSWDY00100000100000100000100100000000000000000000001200        N   115XXXXXX
SYD311229991808201718082017ASY CONCESS DISABLED NYNNSYDY00800100100100000000800100000000000000000000001200        N   179XXX000
SYS311229991808201718082017ASY CONCESSION SENIORNYNNSYSY00800100100100000000800100000000000000000000001200        N   182XXX000
TAD161020190301201803012018ATRAVEL AGENTS DISCNTYNNNTADY0010010010010010000010000010000000000000000000    31122999N   039040XXX
TAD311229991710201917102019ATRAVEL AGENTS DISCNTYNNNTADY0040010010010000000020010020000000000000000000    31122999N   039040XXX
TBC311229990307201803072018ATAMWORTH BC CONCESSNNYNNTBCY0010010010000010000010000000000099999900000000    31122999N   027001002
TP5311229993006201730062017ATPE 15              NYNNTP5Y00100100100100100000100100000000000000000000001200        N   202XXX000
TPE311229990906201709062017ATPE 10              NYNNTPEY00100100100100100000100100000000000000000000001200        N   176XXX000
TRB311229990703201207032012ATRIBE               NNNNTRBY0040010010010000000040010000000000000000000000    31122999N   082001XXX
TST040620191903201919032019A26-30 RAILCARD      NNNNTSTY00800100100100000000800100400000003000000000001200        NZZB043001XXX
TST090120200506201905062019A26-30 RAILCARD      NNNNTSTY00800100100100000000800100400000003000000000001200        NZZB043001XXX
TST100120191406201814062018A26-30 RAILCARD      NNNNTSTY00800100100100000000800100400000003000000000001200        NZZB043001XXX
TST150120191101201911012019A26-30 RAILCARD      NNNNTSTY00800100100100000000800100400000003000000000001200        NZZB043001XXX
TST180320191601201916012019A26-30 RAILCARD      NNNNTSTY00800100100100000000800100400000003000000000001200        NZZB043001XXX
TST311229991001202010012020A26-30 RAILCARD      NNNNTSTY00800100100100000000800100400000003000000000001200        NZZB043001XXX
TSU080720193004201930042019ATEST - NOT VALID    NNNNTSUY00800100100100000000800100400000003000000000001200        NZZZ050XXXXXX
TSU080820192607201926072019A16 - 17 SAVER       NYNNTSUY00100100100100000000800100000000003000000000001200        NZZZ050XXXXXX
TSU150820190908201909082019A16 - 17 SAVER       NYNNTSUY00100100100100000000800100000000003000000000001200        NZAG050XXXXXX
TSU170720190907201909072019ATEST - NOT VALID    NYNNTSUY00800100100100000000800100400000003000000000001200        NZZZ050XXXXXX
TSU250720191807201918072019ATEST - NOT VALID    NYNNTSUY00800100100100000000800100400000003000000000001200        NZZZ050XXXXXX
TSU311229991608201916082019A16 - 17 SAVER       NYNNTSUY00100100100100000000800100000000003000000000001200        NZAG050XXXXXX
TSW080820193004201930042019AREP 16-17           NNNNTSWY00800100100100000000800100400000000000000000001200        NZZZ000XXXXXX
TSW140820190908201909082019AREP 16-17           NNNNTSWY00800100100100000000800100400000000000000000001200        NZAH000XXXXXX
TSW311229991508201915082019AREP 16-17           NNNNTSWY00800100100100000000800100400000000000000000001200        NZAHXXXXXXXXX
UTF311229991512201515122015AUNDER 25 ADVANCE    NNNNUTFY00100100100100100000100100000000000000000000001200        N   023XXX000
VLC010120191201201813112014AVL STUDENT CARD     NYNNVLCY00100100100100000000100100000000000900000000001200        YZWL114XXXXXX
VLC010120200201201914112019AVL STUDENT CARD     NYNNVLCY00100100100100000000100100000000001000000000001200        YZWL114XXXXXX
VLC311229990201202029112019AVL STUDENT CARD     NYNNVLCY00100100100100000000100100000000001250000000001200        YZWL114XXXXXX
VLS010120191201201820102015AVALLEY LINES SENIOR NYNNVLSY00100100100100000000100100000000000500000000001200        YZNQ027XXXXXX
VLS010120200201201924102019AVALLEY LINES SENIOR NYNNVLSY00100100100100000000100100000000001000000000001200        YZNQ027XXXXXX
VLS311229990201202029112019AVALLEY LINES SENIOR NYNNVLSY00100100100100000000100100000000001250000000001200        YZNQ027XXXXXX
VMR311229991201201820042012AVM 10% OFF          NNNNVMRY0010010010010000000010010000000000000000000000    31122999N   004004XXX
VOR071220191504201115042011AVIRGIN FOR OMEGA    NNNNVORY99900199900199900099900099900000000000000000001200        N   XXXXXX000
VOR311229990812201905122019AAWC FOR OMEGA       NNNNVORY99900199900199900099900099900000000000000000001200        N   XXXXXX000
VPD071220192301201523012015AVTWC 50% PROMO      NNNNVPDY0080010010010010010080010000000000000000000000    31122999N   159XXXXXX
VPD311229990812201908122019AAWC 50% PROMO       NNNNVPDY0080010010010010010080010000000000000000000000    31122999N   159XXXXXX
W18311229990201202029112019ATfW RS 18 YEAR RC   NYNNW18Y00100100100100000000800100000000002000000000001200        YZAJ232XXXXXX
W20311229992310201623102016ADISCOUNT 20         NNNNW20Y00100100100100100000100100000000000000000000001200        N   059038000
W34311229992310201323102013ADISCOUNT 34         NNNNW34Y00100100100100100000100100000000000000000000001200        N   044001000
W40311229992310201623102016ADISCOUNT 40         NNNNW40Y00100100100100100000100100000000000000000000001200        N   068029000
W45311229990312201403122014ADISCOUNT 45         NNNNW45Y00100100100100100000100100000000000000000000001200        N   101001000
W47311229990312201403122014ADISCOUNT 47         NNNNW47Y00100100100100100000100100000000000000000000001200        N   107001000
W50311229992310201623102016ADISCOUNT 50         NNNNW50Y00100100100100100000100100000000000000000000001200        N   047035000
W52311229990312201403122014ADISCOUNT 52         NNNNW52Y00100100100100100000100100000000000000000000001200        N   116001000
W55311229992011201320112013ADISCOUNT 55         NNNNW55Y00100100100100100000100100000000000000000000001200        N   071001000
W60311229992011201320112013ADISCOUNT 60         NNNNW60Y00100100100100100000100100000000000000000000001200        N   074001000
W61311229991212201812122018ADISCOUNT 61         NNNNW61Y00100100100100100000100100000000000000000000001200        N   225001XXX
W65311229991601201416012014ADISCOUNT 65         NNNNW65Y00100100100100100000100100000000000000000000001200        N   089001000
W70311229991601201416012014ADISCOUNT 70         NNNNW70Y00100100100100100000100100000000000000000000001200        N   092001000
W75311229992310201323102013ADISCOUNT 75         NNNNW75Y00100100100100100000100100000000000000000000001200        N   053001000
WAG311229992010201520102015AWELSH ASSEMBLY GOVT NYNNWAGY0010010010000010000010000000000099999900000000    31122999N   027XXX000
WDC311229992002201220022012AWYCOMBE DISTRICT    YYNNWDCY00100100100100000000100100000000001000000000001200        YZVV024001XXX
WEB311229990809201508092015A11% WEB DISC        NNNNWEBN0080010010010080010080010000000000000000000000    31122999N   111XXXXXX
WGC311229990201201502012015AWG CONC BUS PASS    NYNNWGCY00100100100100000000100100000000000000000000001200        N   024XXXXXX
WHC311229992010201520102015AWEST HIGHLAND RAILCDNYNNWHCY00300100100100000000100100200000000000000000001200        NZMG027097XXX
WMR180420191506201815062018AWY METRO ROVER      YYNYWMRY0040010010010000000010010030000000000000000000    31122999N   027028XXX
WMR311229991904201919042019AWY METRO ROVER      YYNYWMRY0040010010010000000010010030000000000000000000    31122999N   027028XXX
WMS180420191506201815062018AWY STUDENT PASS     YYYNWMSY0010010010010000000010010000000000000000000000    31122999N   027XXXXXX
WMS311229991904201919042019AWY STUDENT PASS     YYYNWMSY0010010010010000000010010000000000000000000000    31122999N   027XXXXXX
WSC311229990201202029112019ATfW RS STUDENT CARD NYNNWSCY00100100100100000000100100000000002000000000001200        YZCM114XXXXXX
WSH010120200911201902012020ASEASON HOLDER DSCT  NYNNWSHY00100100100100000000100100000000000000000000001200        NZAIXXXXXXXXX
WSH311229990201202002012020ASEASON HOLDER DSCT  NYNNWSHY00100100100100000000100100000000000000000000001200        NZAI233XXXXXX
WYD180420191808201718082017AWY CONCESS DISABLED NYNNWYDY00800100100100000000800100000000000000000000001200        N   185XXX000
WYD311229991904201919042019AWY CONCESS DISABLED NYNNWYDY00800100100100000000800100000000000000000000001200        N   185XXX000
WYS180420191808201718082017AWY CONCESSION SENIORNYNNWYSY00800100100100000000800100000000000000000000001200        N   188XXX000
WYS311229991904201919042019AWY CONCESSION SENIORNYNNWYSY00800100100100000000800100000000000000000000001200        N   188XXX000
YHA311229992004201220042012AYHA MEMBER          NNNNYHAY00800100100100100100800100000000000000000000001200        N   165000000
YNG040620191903201919032019A16-25 RAILCARD      YNYNYNGY00800100100100000000800100400000003000000000001200        YZMA003001XXX
YNG060120200109201905062019A16-25 RAILCARD      YNYNYNGY00800100100100000000800100400000003000000000001200        YZMA003001XXX
YNG090120200701202007012020A16-25 RAILCARD      YNYNYNGY00800100100100000000800100400000003000000000001200        YZMA003001XXX
YNG100120190109201814062018A16-25 RAILCARD      YNYNYNGY00800100100100000000800100400000003000000000001200        YZMA003001XXX
YNG150120191101201911012019A16-25 RAILCARD      YNYNYNGY00800100100100000000800100400000003000000000001200        YZMA003001XXX
YNG180320191601201916012019A16-25 RAILCARD      YNYNYNGY00800100100100000000800100400000003000000000001200        YZMA003001XXX
YNG300620190506201905062019A16-25 RAILCARD      YNYNYNGY00800100100100000000800100400000003000000000001200        YZMA003001XXX
YNG300620201001202010012020A16-25 RAILCARD      YNYNYNGY00800100100100000000800100400000003000000000001200        YZMA003001XXX
YNG310820190107201911062019A16-25 RAILCARD      YNYNYNGY00800100100100000000800100400000003000000000001200        YZMA003001XXX
YNG310820200107202010012020A16-25 RAILCARD      YNYNYNGY00800100100100000000800100400000003000000000001200        YZMA003001XXX
YNG311229990109202010012020A16-25 RAILCARD      YNYNYNGY00800100100100000000800100400000003000000000001200        YZMA003001XXX
YNH311229990201201502012015A16-25 RAILCARD AGC  NNNNYNHY00100100100100000000100100000000001000000000001200        YZPDXXXXXXXXX
YNR311229990906201709062017A16-18 TPE DISCOUNT  NNNNYNRY00100100100100100000100100000000000000000000001200        N   100XXX000
YTH311229991306201813062018CBRITRAIL YOUTH      NNNNYTHY0010010010010010000000000010000000000000000000    31122999NZZZ054055XXX
/!! End of file (04/02/2020)