/!! Start of file                                                               
/!! Content type:  TTY                                                          
/!! Sequence:      472                                                          
/!! Records:       2735                                                         
/!! Generated:     04/02/2020                                                   
/!! Exporter:      RJIS RjEhrFrs v 4.6.5                                        
R0AA160720192404201416072019SMART TKS      2SS31122999001001000000001000NNY87SMART TKS           1NTDC 000 N00120
R0AA311229991707201916072019SMART TKS      2SS31122999001001000000001000NNY87SMART TKS           1NTDC 000 N00120
R0AB160720192404201416072019SMART TKR      2RS31122999001001000000001000NNY84SMART TKR           2NUDB 000 N00120
R0AB311229991707201916072019SMART TKR      2RS31122999001001000000001000NNY84SMART TKR           2NUDB 000 N00120
R0AC311229992805201725052017SMART FDR      1RF31122999001001001000001000NNN81SMART FDR           2NUAF 000 N00101
R0AD311229992805201725052017SMART FDS      1SF31122999001001001000001000NNN87SMART FDS           1NTAA 000 N00101
R0AE311229992805201725052017SMART SDR      2RS31122999001001001000001000NNN81SMART SDR           2NUAF 000 N00101
R0AF311229992805201725052017SMART SDS      2SS31122999001001001000001000NNN87SMART SDS           1NTAA 000 N00101
R0AG311229992805201725052017SMART FLEXI SDR2RS31122999001001001000001000NNN81SMART FLEXI SDR     2NUAB 000 N00118
R0AH311229992805201725052017SMART FLEXI FDR1RF31122999001001001000001000NNN81SMART FLEXI FDR     2NUAB 000 N00118
R0AJ311229993105201725052017SMART FCR      1RF31122999001001001000001000NYY85SMART FCR           2NUDY 000 N00104
R0AK311229993105201725052017SMART CDR      2RS31122999001001001000001000NNY85SMART CDR           2NUDY 000 N00104
R0AL311229993105201725052017SMART CDS      2SS31122999001001001000001000NYY88SMART CDS           1NTDA 000 N00104
R0AM311229991808201716082017SMART FLEXI STD2NS31122999001001001000001000NNN24SMART FLEXI SEASON  0NVXA 980 N00118
R0AN311229991808201716082017SMART FLEXI 1ST1NF31122999001001001000001000NNN24SMART FLEXI SSN 1ST 0NVXA 980 N00118
R0AQ311229992805201725052017SMART 7DS      2NS31122999001001001000001000NNN00SMART 7DS           0NVQA 980 N00105
R0AR311229992805201725052017SMART 7DF      1NF31122999001001001000001000NNN00SMART 7DF           0NVQA 980 N00105
R0AS311229992805201725052017SMART PSS      2NS31122999001001001000001000NNN00SMART PSS           0NMSE 980 N00105
R0AT311229992805201725052017SMART PSF      1NF31122999001001001000001000NNN00SMART PSF           0NMSE 980 N00105
R0AU311229992805201725052017SMART FLEXI PSS2NS31122999001001001000001000NNN00SMART FLEXI PSS     0NMXE 980 N00118
R0AV311229992805201725052017SMART FLEXI PSF1NF31122999001001001000001000NNN00SMART FLEXI PSF     0NMXE 980 N00118
R0AW311229993105201725052017SMART ADVANCE  2SS31122999001001001000001000YYY64SMART ADVANCE       1BSWH 000 N00101
R0AX311229993105201725052017SMART ADVANCE  2SS31122999001001001000001000YYY64SMART ADVANCE       1BSWI 000 N00101
R0AY311229993105201725052017SMART ADVANCE  2SS31122999001001001000001000YYY64SMART ADVANCE       1BSWJ 000 N00101
R0AZ311229993105201725052017SMART ADVANCE 11SF31122999001001001000001000YYY64SMART ADVANCE 1     1BSWD 000 N00117
R0BA311229992406201720062017SMART ANN NTRAI2NS31122999001001001000001000NNN00SMART ANN NTRAI     0NMSE 980 N00105
R0BB311229992406201720062017SMART 6MON NTRA2NS31122999001001001000001000NNN00SMART 6MON NTRA     0NMSE 980 N00105
R0BC311229992406201720062017SMART 3MON NTRA2NS31122999001001001000001000NNN00SMART 3MON NTRA     0NMSE 980 N00105
R0BD311229992406201720062017SMART 1MON NTRA2NS31122999001001001000001000NNN00SMART 1MON NTRA     0NMSE 980 N00105
R0BE311229992406201720062017SMART DDMON NTR2NS31122999001001001000001000NNN00SMART DDMON NTR     0NMSE 980 N00105
R0BF311229992406201720062017SMART 28D NTRAI2NS31122999001001001000001000NNN00SMART 28D NTRAI     0NMSE 980 N00105
R0BG311229992406201720062017SMART 7D NTRAIN2NS31122999001001001000001000NNN00SMART 7D NTRAIN     0NVQA 980 N00105
R0BL311229993105201725052017SMART SVR      2RS31122999001001001000001000NNY72SMART SVR           2NUFP 000 N00103
R0BM311229993105201725052017SMART FSR      1RF31122999001001001000001000NNY97SMART FSR           2NUFP 000 N00104
R0BN311229992402201823022018SMART PDS      2SS31122999001001001000001000NNY84SMART PDS           1NUWE 000 N00103
R0BO311229992402201823022018SMART PDR      2RS31122999001001001000001000NNY85SMART PDR           2NUWF 000 N00103
R0BP311229993105201725052017SMART AM1      2SS31122999001001001000001000NNY88SMART AM1           1NUWC 000 N00103
R0BQ311229993105201725052017SMART AM2      2RS31122999001001001000001000NNY85SMART AM2           2NUWD 000 N00103
R0BR311229990309201706072017SMART +BUS PBD 2SS31122999001001001000001000NNN81SMART +BUS PBD      1NUAX 000 N00108
R0BS311229990309201706072017SMART +BUS PB7 2NS31122999001001001000001000NNN00SMART +BUS PB7      0NVQA 980 N00119
R0BT311229990309201706072017SMART +BUS BMS 2NS31122999001001001000001000NNN00SMART +BUS BMS      0NMSE 000 N00119
R0BU311229990309201706072017SMART +BUS BQS 2NS31122999001001001000001000NNN00SMART +BUS BQS      0NMSE 000 N00119
R0BV311229990309201706072017SMART +BUS BAS 2NS31122999001001001000001000NNN00SMART +BUS BAS      0NMSE 000 N00119
R0BW311229992002201407042017SMART CBA      2RS31122999001001001000001000NNY85SMART CBA           2NULDN000 N00101
R0BX311229992005201815052018SMART WRE      2RS31122999001001001000001000NNY81SMART WRE           2NULC 980 N00101
R0BY311229992002201407042017SMART CBB      2SS31122999001001001000001000NNY62SMART CBB           1NTGBN000 N00101
R0BZ311229990805201407042017SMART TKT      2RS31122999004001000000004001NNY81SMART TKT           2NUCDN981 N00120
R0CA311229992005201814052018SMART ADT      2RS31122999001001001000001000NNN81SMART ADT           2NUAF 980 N00113
R0CB311229992005201814052018SMART FDT      1RF31122999001001001000001000NNN81SMART FDT           2NUAF 980 N00113
R0CC311229992005201814052018SMART ODT      2RS31122999001001001000001000NNY81SMART ODT           2NUDY 981 N00104
R0CD311229992005201814052018SMART OTF      1RF31122999001001001000001000NNY81SMART OTF           2NUDY 981 N00104
R0CE311229992005201814052018SMART AM3      2RS31122999001001001000001000NNY81SMART AM3           2NUWB 980 N00103
R0CF311229992005201814052018SMART WTC      2RS31122999001001001000001000NNN81SMART WTC           2NUYA 980 N00104
R0CG311229992005201814052018SMART FTC      2RS31122999001001001000001000NNY81SMART FTC           2NUDK 981 N00120
R0CH311229992005201814052018SMART 7TS      2NS31122999001001001000001000NNN00SMART 7TS           0NVQA 980 N00105
R0CI311229992005201814052018SMART 7TF      1NF31122999001001001000001000NNN00SMART 7TF           0NVQA 980 N00105
R0CJ311229992005201814052018SMART TRV      2NS31122999001001001000001000NNN00SMART TRV           0NMSE 980 N00105
R0CK311229992005201814052018SMART TRF      1NF31122999001001001000001000NNN00SMART TRF           0NMSE 980 N00105
R0CL311229991712201407042017SMART DAYSAVE  2RS31122999001001001000001000NNN78SMART DAYSAVE       2NUCBN980 N00120
R0CM311229991712201407042017SMART SD4      2RS31122999004003004000004000NNN78SMART SD4           2NURCN980 N00120
R0CN311229991712201407042017SMART SDP      2RS31122999001001001000000000NNN78SMART SDP           2NUADN980 N00120
R0CO311229992502201407042017SMART SDW      2RS31122999001001001000000000NNN27SMART SDW           2NVRBN980 N00120
R0CP311229990606201407042017SMART BUS D SGL9SS31122999001001001000001000NNN87SMART BUS D SGL     1NZIAN000 N00120
R0CQ311229990606201407042017SMART BUS D RTN9RS31122999001001001000001000NNN81SMART BUS D RTN     2NZIBN000 N00120
R0CR311229990606201407042017SMART BUS MULTI9RS31122999001001001000001000NNN80SMART BUS MULTI     2NZICY000 N00120
R0E1311229993105201725052017SMART GE1      1RF31122999001001001000001000NNY85SMART GE1           2NUDY 000 N00102
R0FR311229992805201725052017SMART FOR      1RF31122999001001001000001000NNN41SMART FOR           2NUAA 000 N00101
R0FS311229992805201725052017SMART FOS      1SF31122999001001001000001000NNN40SMART FOS           1NTAA 000 N00101
R0GR311229992805201725052017SMART FGR      1RF31122999001001001000001000NNN41SMART FGR           2NUAA 000 N00101
R0GS311229992805201725052017SMART FGS      1SF31122999001001001000001000NNN40SMART FGS           1NTAA 000 N00101
R0HR311229992805201725052017SMART HOR      2RS31122999001001001000001000NNN41SMART HOR           2NUAA 000 N00101
R0HS311229992805201725052017SMART HOS      2SS31122999001001001000001000NNN40SMART HOS           1NTAA 000 N00101
R0OR311229992805201725052017SMART SOR      2RS31122999001001001000001000NNN41SMART SOR           2NUAA 000 N00101
R0OS311229992805201725052017SMART SOS      2SS31122999001001001000001000NNN40SMART SOS           1NTAA 000 N00101
R10A311229990206201731052017CARNET OFFPK S 2SS31122999010010010000010000NNY55CARNET OFFPK S      1NANW 000 N00120
R10B311229990206201731052017CARNET OFFPK F 1SF31122999010010010000010000NNY55CARNET OFFPK F      1NANW 000 N00120
R10F311229990206201731052017CARNET FIRST   1SF31122999010010010000010000NNN55CARNET FIRST        1NANV 000 N00120
R10S311229990206201731052017CARNET STANDARD2SS31122999010010010000010000NNN55CARNET STANDARD     1NANV 000 N00120
R1AB311229990306201702062017ADVANCE 1ST    1SF31122999001001001000001000YYY64ADVANCE 1ST         1BSIK 000 N00117
R1AF311229990906201706062017ADVANCE 1ST    1SF31122999001001001000001000YYY64ADVANCE 1ST         1BAMA 000 N00102
R1AS311229990306201702062017ADVANCE 1ST    1SF31122999001000001000001000YYY64ADVANCE 1ST         1BSIA 000 N00102
R1BB311229990306201702062017ADVANCE 1ST    1SF31122999001001001000001000YYY64ADVANCE 1ST         1BSIL 000 N00117
R1BF311229990906201706062017ADVANCE 1ST    1SF31122999001001001000001000YYY64ADVANCE 1ST         1BAMB 000 N00102
R1BR3112299903062017010620171STBUSRAILC    2RS31122999001001001000001000NNN681STBUSRAILC         2NBDG 980 N00120
R1BS311229990306201702062017ADVANCE 1ST    1SF31122999001000001000001000YYY64ADVANCE 1ST         1BSIB 000 N00102
R1CB311229990306201702062017ADVANCE 1ST    1SF31122999001001001000001000YYY64ADVANCE 1ST         1BSIM 000 N00117
R1CF311229990906201706062017ADVANCE 1ST    1SF31122999001001001000001000YYY64ADVANCE 1ST         1BAMC 000 N00102
R1CS311229990306201702062017ADVANCE 1ST    1SF31122999001000001000001000YYY64ADVANCE 1ST         1BSIC 000 N00102
R1D0100120192408201810012019SOLO CAL DOUBLE1SF31122999001001001000001000YYY64SOLO CAL DOUBLE     1BESV 000 N00108
R1D0140620191101201914062019SOLO CAL DOUBLE1SF31122999001001001000001000YYY64SOLO CAL DOUBLE     1BESV 000 N00119
R1D0311229991506201911062019SOLO CAL DOUBLE1SF31122999001001001000001000YYY64SOLO CAL DOUBLE     1BESV 000 N00120
R1DB311229990306201702062017ADV BREAKFAST  1SF31122999001000001000001000YYY87ADV BREAKFAST       1BSIF 000 N00117
R1DF311229990906201706062017ADVANCE 1ST    1SF31122999001001001000001000YYY64ADVANCE 1ST         1BAMD 000 N00102
R1DR311229993105201725052017OFF-PEAK DAY R 2RS31122999001001001000001000NNY85OFF-PEAK DAY R      2NBDH 000 N00101
R1DS311229990306201702062017ADVANCE 1ST    1SF31122999001001001000001000YYY64ADVANCE 1ST         1BSID 000 N00102
R1DT311229992005201814052018OFF-PEAK TCDSTD2RS31122999001001001000001000NNY81OFF-PEAK TCDSTD     2NBDH 981 N00101
R1DZ311229991310201725092017SUITE SOLO SUPP1SF31122999001001001000001000YYY64SUITE SOLO SUPPLEMNT1BZED 000 N00119
R1EF311229990906201706062017ADVANCE 1ST    1SF31122999001001001000001000YYY64ADVANCE 1ST         1BAME 000 N00102
R1ES311229990306201702062017ADVANCE 1ST    1SF31122999001001001000001000YYY64ADVANCE 1ST         1BSIE 000 N00102
R1F0311229991310201725092017CLUB SOLO      1SF31122999001001001000001000YYY64CLUB SOLO           1BESE 000 N00108
R1F1311229991310201725092017CLUB SOLO      1SF31122999001001001000001000YYY64CLUB SOLO           1BESD 000 N00108
R1F2311229991310201711102017CLUB SOLO      1SF31122999001001001000001000YYY64CLUB SOLO           1BESC 000 N00108
R1F3311229991310201711102017CLUB SOLO      1SF31122999001001001000001000YYY64CLUB SOLO           1BESB 000 N00108
R1F4311229991310201711102017CLUB SOLO      1SF31122999001001001000001000YYY64CLUB SOLO           1BESA 000 N00108
R1F8311229992508201823082018CLUB SOLO      1SS31122999001001001000001000NNN64CLUB SOLO           1BSCI 000 N00108
R1F9311229992508201823082018CLUB SOLO      1SS31122999001001001000001000NNN64CLUB SOLO           1BSCJ 000 N00108
R1FA311229990509201731082017CLUB SOLO      1SS31122999001001001000001000NNN64CLUB SOLO           1BSCG 000 N00108
R1FB311229990509201731082017CLUB SOLO      1SS31122999001001001000001000NNN64CLUB SOLO           1BSCH 000 N00108
R1FF311229990906201706062017ADVANCE 1ST    1SF31122999001001001000001000YYY64ADVANCE 1ST         1BANE 000 N00117
R1FJ070820190607201907082019CLUB FLX RES   1SS31122999002001000000000000NNN17CLUB FLX RES        1BZZZ  00 N00120
R1FJ311229990808201907082019CLUB FLX RES   1SS31122999002001000000000000NNN17CLUB FLX RES        1BSCT  00 N00120
R1FS311229990306201702062017ADVANCE 1ST    1SF31122999001001001000001000YYY64ADVANCE 1ST         1BSIG 000 N00102
R1FZ030520192604201903052019CLUB SOLO ROOM 1SF31122999001001001000001000YYY64CLUB SOLO ROOM ONLY 1BZEB 000 N00120
R1FZ250420191310201725042019CLUB SOLO ROOM 1SF31122999001001001000001000YYY64CLUB SOLO ROOM ONLY 1BZEB 000 N00119
R1FZ311229990405201902052019CB SO ROOM ONLY1SF31122999001001001000001000YYY64CLUB SOLO ROOM ONLY 1BZEB 000 N00120
R1G0311229991310201711102017FIXED CLUB SOLO1SF31122999001001001000001000YYY64FIXED CLUB SOLO     1BESJ 000 N00117
R1G1311229991310201711102017FIXED CLUB SOLO1SF31122999001001001000001000YYY64FIXED CLUB SOLO     1BESI 000 N00117
R1G2311229991310201711102017FIXED CLUB SOLO1SF31122999001001001000001000YYY64FIXED CLUB SOLO     1BESH 000 N00117
R1G3311229991310201711102017FIXED CLUB SOLO1SF31122999001001001000001000YYY64FIXED CLUB SOLO     1BESG 000 N00117
R1G4311229991310201711102017FIXED CLUB SOLO1SF31122999001001001000001000YYY64FIXED CLUB SOLO     1BESF 000 N00117
R1G8311229992508201823082018FIXED CLUB SOLO1SS31122999001001001000001000NNN64FIXED CLUB SOLO     1BSCG 000 N00117
R1G9311229992508201823082018FIXED CLUB SOLO1SS31122999001001001000001000NNN64FIXED CLUB SOLO     1BSCH 000 N00117
R1GA311229993105201830052018FIXED CLUB SOLO1SS31122999001001001000001000NNN64FIXED CLUB SOLO     1BSCI 000 N00117
R1GB311229991310201711102017FIXED CLUB SOLO1SS31122999001001001000001000NNN64FIXED CLUB SOLO     1BSCJ 000 N00117
R1GF311229990906201706062017ADVANCE 1ST    1SF31122999001001001000001000YYY64ADVANCE 1ST         1BANF 000 N00117
R1GS311229990306201702062017ADVANCE 1ST    1SF31122999001001001000001000YYY64ADVANCE 1ST         1BSIH 000 N00102
R1HF311229990906201706062017ADVANCE 1ST    1SF31122999001001001000001000YYY64ADVANCE 1ST         1BANG 000 N00117
R1HS311229990306201702062017ADVANCE 1ST    1SF31122999001001001000001000YYY64ADVANCE 1ST         1BSIJ 000 N00102
R1JF311229990906201706062017ADVANCE 1ST    1SF31122999001001001000001000YYY64ADVANCE 1ST         1BBNL 000 N00117
R1JS131120190306201713112019ADVANCE 1ST    1SF31122999001001001000001000YYY64ADVANCE 1ST         1BSIZ 000 N00117
R1JS261120191411201926112019JAN PROMO 1ST  1RF31122999001001001000001000YYY64JAN PROMO 1ST       2BSIZ 000 N00117
R1JS311229992711201926112019JAN PROMO 1ST  1RF31122999001001001000001000YYY26JAN PROMO 1ST       2BSIZ 000 N00117
R1KF311229990906201706062017ADVANCE 1ST    1SF31122999001001001000001000YYY64ADVANCE 1ST         1BBNM 000 N00117
R1KS311229992208201721082017ADVANCE 1ST    1SS31122999001001001000001000NNN64ADVANCE 1ST         1BSGI 000 N00102
R1LA3112299913082009070420171ST LOUNGE YEAR9NF31122999001001001000001000NNN001ST LOUNGE YEAR     0NZDYN290 N00120
R1LD3112299913082009070420171ST LOUNGE DAY 9SF31122999001001001000001000NNN671ST LOUNGE DAY      1NZDDN290 N00120
R1LF311229991706201708062017ADVANCE 1ST    1SS31122999001001001000001000NNN64ADVANCE 1ST         1BAMA 000 N00102
R1LM3112299913082009070420171ST LOUNGE MNTH9NF31122999001001001000001000NNN001ST LOUNGE MNTH     0NZDMN290 N00120
R1LW3112299913082009070420171ST LOUNGE WEEK9NF31122999001001001000001000NNN001ST LOUNGE WEEK     0NZDLN290 N00120
R1MP3112299909072019010720191 MNTH TfW DUTY2NS31122999001001001000000000NNN001 MNTH TfW DUTY PASS0NHLQ  00 N00120
R1PS311229990807201407042017CARDIFF DAY    2RS31122999001000001000001000NNN81CARDIFF DAY         2NBDYN980 N00120
R1S0311229991310201711102017CLASSIC SOLO   2SS31122999001001001000001000YYY64CLASSIC SOLO        1BESE 000 N00108
R1S1311229991310201711102017CLASSIC SOLO   2SS31122999001001001000001000YYY64CLASSIC SOLO        1BESD 000 N00108
R1S2311229991310201711102017CLASSIC SOLO   2SS31122999001001001000001000YYY64CLASSIC SOLO        1BESC 000 N00108
R1S3311229991310201711102017CLASSIC SOLO   2SS31122999001001001000001000YYY64CLASSIC SOLO        1BESB 000 N00108
R1S4311229991310201711102017CLASSIC SOLO   2SS31122999001001001000001000YYY64CLASSIC SOLO        1BESA 000 N00108
R1S8311229990706201806062018CLASSIC SOLO   2SS31122999001001001000001000NNN64CLASSIC SOLO        1BEFQ 000 N00108
R1S9311229990706201806062018CLASSIC SOLO   2SS31122999001001001000001000NNN64CLASSIC SOLO        1BEFR 000 N00108
R1SA180120193105201718012019SLPR BERTH 1ST 1SF31122999001001001000001000YYY66SLPR BERTH 1ST      1BSCB 000 S00108
R1SA190120191901201918012019SLPR BERTH 1ST 1SF19012019001001001000001000YYY66SLPR BERTH 1ST      1BSCB 000 S00108
R1SB180120193105201718012019SLPR BERTH 1ST 1SF31122999001001001000001000YYY66SLPR BERTH 1ST      1BSCC 000 S00108
R1SB190120191901201918012019SLPR BERTH 1ST 1SF19012019001001001000001000YYY66SLPR BERTH 1ST      1BSCC 000 S00108
R1SC180120193105201718012019SLPR BERTH 1ST 1SF31122999001001001000001000YYY66SLPR BERTH 1ST      1BSCD 000 S00108
R1SC190120191901201918012019SLPR BERTH 1ST 1SF19012019001001001000001000YYY66SLPR BERTH 1ST      1BSCD 000 S00108
R1SD180120193105201718012019SLPR BERTH 1ST 1SF31122999001001001000001000YYY66SLPR BERTH 1ST      1BSCE 000 S00108
R1SD190120191901201918012019SLPR BERTH 1ST 1SF19012019001001001000001000YYY66SLPR BERTH 1ST      1BSCE 000 S00108
R1SE180120193105201718012019SLPR BERTH 1ST 1SF31122999001001001000001000YYY66SLPR BERTH 1ST      1BSCF 000 S00108
R1SE190120191901201918012019SLPR BERTH 1ST 1SF19012019001001001000001000YYY66SLPR BERTH 1ST      1BSCF 000 S00108
R1SJ070820190607201907082019CLASSIC FLX RES2SS31122999002001000000000000NNN17CLASSIC FLX RES     1BZZZ  00 N00120
R1SJ311229990808201907082019CLASSIC FLX RES2SS31122999002001000000000000NNN17CLASSIC FLX RES     1BSCT  00 N00120
R1SO311229990106201729052017SUPER OFFPK 1R 1RF31122999001001001000001000NNY84SUPER OFFPK 1R      2NBIA 000 N00109
R1SS311229990106201729052017SUPER OFFPK 1S 1SF31122999001001001000001000NNY85SUPER OFFPK 1S      1NAIA 000 N00109
R1ST311229992005201814052018SUP OFFPK DAYTC1RF31122999001001001000001000NNY81SUP OFFPK DAYTC     2NBTA 980 N00101
R1SZ030520192604201903052019CLASSIC SOLO RM2SS31122999001001001000001000YYY64CLASSIC SOLO RM ONLY1BZEB 000 N00120
R1SZ250420191310201725042019CLASSIC SOLO RM2SS31122999001001001000001000YYY64CLASSIC SOLO RM ONLY1BZEB 000 N00119
R1SZ311229990405201902052019CC SO ROOM ONLY2SS31122999001001001000001000YYY64CLASSIC SO ROOM ONLY1BZEB 000 N00120
R1T0311229991310201711102017FIXED CLSIC SOL2SS31122999001001001000001000YYY64FIXED CLSIC SOLO    1BESJ 000 N00117
R1T1311229991310201711102017FIXED CLSIC SOL2SS31122999001001001000001000YYY64FIXED CLSIC SOLO    1BESI 000 N00117
R1T2311229991310201711102017FIXED CLSIC SOL2SS31122999001001001000001000YYY64FIXED CLSIC SOLO    1BESH 000 N00117
R1T3311229991310201711102017FIXED CLSIC SOL2SS31122999001001001000001000YYY64FIXED CLSIC SOLO    1BESG 000 N00117
R1T4311229991310201711102017FIXED CLSIC SOL2SS31122999001001001000001000YYY64FIXED CLSIC SOLO    1BESF 000 N00117
R1T8311229990706201806062018FIXED CLSIC SOL2SS31122999001001001000001000NNN64FIXED CLSIC SOLO    1BEFS 000 N00117
R1T9311229990706201806062018FIXED CLSIC SOL2SS31122999001001001000001000NNN64FIXED CLSIC SOLO    1BEFU 000 N00117
R1VF071220191811201729112019VTWC FAMRTN 1ST1RS31122999006002002001004001NNN28VTWC FAMRTN 1ST     2OHFO 000 N00120
R1VF311229990812201918112019AWC FAMRTN 1ST 1RS31122999006002002001004001NNN28AWC FAMRTN 1ST      2OHFO 000 N00120
R1WK311229992406201720062017NET 1STPLUS 1WK1NF31122999001001001000000000NNN00NET 1STPLUS 1WK     0NMQA 980 N00120
R1WP3112299909072019010720191WEEK DUTY PASS2NS31122999001001001000000000NNN001 WEEK TfW DUTY PASS0NHLU  00 N00120
R1YP3112299909072019010720191YEAR DUTY PASS2NS31122999001001001000000000NNN001 YEAR TfW DUTY PASS0NHLT  00 N00120
R24A311229990506201702062017CDR 2FOR1      2RS31122999002002002000002000NNY85CDR 2FOR1           2NHCO 000 N00104
R24B311229990506201702062017CDS 2FOR1      2SS31122999002002002000002000NNY88CDS 2FOR1           1NSCB 000 N00104
R24C311229990506201702062017SVR 2FOR1      2RS31122999002002002000002000NNY72SVR 2FOR1           2NHCP 000 N00103
R24D311229990506201702062017SDR 2FOR1      2RS31122999002002002000002000NNN81SDR 2FOR1           2NHCM 000 N00103
R24E311229990506201702062017SOR 2FOR1      2RS31122999002002002000002000NNN41SOR 2FOR1           2NHCN 000 N00101
R24F311229990506201702062017SDS 2FOR1      2SS31122999002002002000002000NNN87SDS 2FOR1           1NSCA 000 N00101
R24G311229990506201702062017FDR 2FOR1      1RF31122999002002002000002000NNN81FDR 2FOR1           2NHCM 000 N00101
R24H311229990506201702062017FDS 2FOR1      1SF31122999002002002000002000NNN87FDS 2FOR1           1NSCA 000 N00101
R24I311229990506201702062017FOR 2FOR1      1RF31122999002002002000002000NNN41FOR 2FOR1           2NHCN 000 N00101
R2AA311229990803201806032018ADVANCE        2SS31122999001001001000001000YYY64ADVANCE             1BAMI 000 N00102
R2AF311229990906201706062017ADVANCE        2SS31122999001001001000001000YYY64ADVANCE             1BAMA 000 N00102
R2AS311229990306201702062017ADVANCE        2SS31122999001001001000001000YYY64ADVANCE             1BSIA 000 N00101
R2BA271120191312201827112019ADVANCE PROMO  2SP31122999001001001000001000NNN64ADVANCE PROMO       1BAMJ 000 N00102
R2BA311229992811201927112019Promo ADVANCE  2SP31122999001001001000001000NNN64Promotional ADVANCE 1BAMJ 000 N00102
R2BF311229990906201706062017ADVANCE        2SS31122999001001001000001000YYY64ADVANCE             1BAMB 000 N00102
R2BS131120190306201713112019ADVANCE        2SS31122999001001001000001000YYY64ADVANCE             1BSIB 000 N00101
R2BS261120191411201926112019JAN PROMO      2RS31122999001001001000001000YYY64JAN PROMO           2BSIB 000 N00101
R2BS311229992711201926112019JAN PROMO      2RS31122999001001001000001000YYY26JAN PROMO           2BSIB 000 N00101
R2CC311229993105201726052017ADVANCE        2SS31122999001001001000001000YYY64ADVANCE             1BSOC 000 N00102
R2CF311229990906201706062017ADVANCE        2SS31122999001001001000001000YYY64ADVANCE             1BAMC 000 N00102
R2CS311229990306201702062017ADVANCE        2SS31122999001001001000001000YYY64ADVANCE             1BSIC 000 N00102
R2D0100120192408201810012019CAL DOUBLE     1SF31122999002002002000002000YYY64CALEDONIAN DOUBLE   1BESU 000 N00108
R2D0140620191101201914062019CAL DOUBLE     1SF31122999002002002000002000YYY64CALEDONIAN DOUBLE   1BESU 000 N00119
R2D0311229991506201911062019CAL DOUBLE     1SF31122999002002002000002000YYY64CALEDONIAN DOUBLE   1BESU 000 N00120
R2DC311229993105201726052017ADVANCE        2SS31122999001001001000001000YYY64ADVANCE             1BSOD 000 N00102
R2DF311229990906201706062017ADVANCE        2SS31122999001001001000001000YYY64ADVANCE             1BAMD 000 N00102
R2DS311229990306201702062017ADVANCE        2SS31122999001001001000001000YYY64ADVANCE             1BSID 000 N00102
R2DZ311229991310201711102017SUITE ROOM ONLY1SF31122999002002002000002000YYY64SUITE ROOM ONLY     1BZEE 000 N00120
R2EC311229993105201726052017ADVANCE        2SS31122999001001001000001000YYY64ADVANCE             1BSOE 000 N00102
R2EF311229990906201706062017ADVANCE        2SS31122999001001001000001000YYY64ADVANCE             1BAME 000 N00102
R2ES311229990306201702062017ADVANCE        2SS31122999001001001000001000YYY64ADVANCE             1BSIE 000 N00102
R2F0311229991310201711102017CLUB TWIN      1SF31122999002002002001001000YYY64CLUB TWIN           1BESO 000 N00108
R2F1311229991310201711102017CLUB TWIN      1SF31122999002002002001001000YYY64CLUB TWIN           1BESN 000 N00108
R2F2311229991310201711102017CLUB TWIN      1SF31122999002002002001001000YYY64CLUB TWIN           1BESM 000 N00108
R2F3311229991310201711102017CLUB TWIN      1SF31122999002002002001001000YYY64CLUB TWIN           1BESL 000 N00108
R2F4311229991310201711102017CLUB TWIN      1SF31122999002002002001001000YYY64CLUB TWIN           1BESK 000 N00108
R2F8311229990706201806062018CLUB TWIN      1SS31122999002002002001001000NNN64CLUB TWIN           1BEFL 000 N00108
R2F9311229990706201806062018CLUB TWIN      1SS31122999002002002001001000NNN64CLUB TWIN           1BEFM 000 N00108
R2FB311229990306201702062017ADVANCE        2SS31122999001001001000001000YYY64ADVANCE             1BSIY 000 N00117
R2FC311229993105201726052017ADVANCE        2SS31122999001001001000001000YYY64ADVANCE             1BSOF 000 N00102
R2FF311229990906201706062017ADVANCE        2SS31122999001001001000001000YYY64ADVANCE             1BANE 000 N00117
R2FI311229990306201702062017ADVANCE        2SS31122999001001001000001000YYY64ADVANCE             1BSGY 000 N00117
R2FS311229990306201702062017ADVANCE        2SS31122999001001001000001000YYY64ADVANCE             1BSIF 000 N00102
R2FZ030520191310201703052019CLUB TWIN R OLY1SF31122999002002002000002000YYY64CLUB TWIN RM ONLY   1BZEC 000 N00120
R2FZ311229990405201902052019CB TW ROOM ONLY1SF31122999002002002000002000YYY64CLUB TWIN ROOM ONLY 1BZEC 000 N00120
R2G0311229993108201830082018FIXED CLUB TWIN1SF31122999002002002000002000YYY64FIXED CLUB TWIN     1BEST 000 N00117
R2G1311229993108201830082018FIXED CLUB TWIN1SF31122999002002002000002000YYY64FIXED CLUB TWIN     1BESS 000 N00117
R2G2311229993108201830082018FIXED CLUB TWIN1SF31122999002002002000002000YYY64FIXED CLUB TWIN     1BESR 000 N00117
R2G3311229993108201830082018FIXED CLUB TWIN1SF31122999002002002000002000YYY64FIXED CLUB TWIN     1BESQ 000 N00117
R2G4311229993108201830082018FIXED CLUB TWIN1SF31122999002002002000002000YYY64FIXED CLUB TWIN     1BESP 000 N00117
R2G8311229993108201830082018FIXED CLUB TWIN1SS31122999002002002000002000NNN64FIXED CLUB TWIN     1BEFN 000 N00117
R2G9311229993108201830082018FIXED CLUB TWIN1SS31122999002002002000002000NNN64FIXED CLUB TWIN     1BEFO 000 N00117
R2GB311229990306201702062017ADVANCE        2SS31122999001001001000001000YYY64ADVANCE             1BSIZ 000 N00117
R2GC311229993105201726052017ADVANCE        2SS31122999001001001000001000YYY64ADVANCE             1BSOG 000 N00102
R2GF311229990906201706062017ADVANCE        2SS31122999001001001000001000YYY64ADVANCE             1BANF 000 N00117
R2GI311229990306201702062017ADVANCE        2SS31122999001001001000001000YYY64ADVANCE             1BSGZ 000 N00117
R2GS311229990306201702062017ADVANCE        2SS31122999001001001000001000YYY64ADVANCE             1BSIG 000 N00102
R2HC311229993105201726052017ADVANCE        2SS31122999001001001000001000YYY64ADVANCE             1BSOH 000 N00117
R2HF311229990906201706062017ADVANCE        2SS31122999001001001000001000YYY64ADVANCE             1BANG 000 N00117
R2HS311229990306201702062017ADVANCE        2SS31122999001001001000001000YYY64ADVANCE             1BSIH 000 N00102
R2IA311229990306201702062017ADVANCE        2SS31122999001001001000001000YYY64ADVANCE             1BSGA 000 N00117
R2IB311229990306201702062017ADVANCE        2SS31122999001001001000001000YYY64ADVANCE             1BSIO 000 N00117
R2IC311229990306201702062017ADVANCE        2SS31122999001001001000001000YYY64ADVANCE             1BSIP 000 N00117
R2ID311229990306201702062017ADVANCE        2SS31122999001001001000001000YYY64ADVANCE             1BSIR 000 N00117
R2IE311229990306201702062017ADVANCE        2SS31122999001001001000001000YYY64ADVANCE             1BSIS 000 N00117
R2IF050820190306201705082019ADVANCE        2SS31122999001001001000001000YYY64ADVANCE             1BSIT 000 N00117
R2IF311229990608201905082019FAM&FRIENDS STD2RS31122999001001001000001000YYY79FAM&FRIENDS STD     2NSIT 000 N00120
R2IG311229990306201702062017ADVANCE        2SS31122999001001001000001000YYY64ADVANCE             1BSIU 000 N00117
R2IH311229990306201702062017ADVANCE        2SS31122999001001001000001000YYY64ADVANCE             1BSIV 000 N00117
R2II311229990306201702062017ADVANCE        2SS31122999001001001000001000YYY64ADVANCE             1BSIW 000 N00117
R2IJ311229990306201702062017ADVANCE        2SS31122999001001001000001000YYY64ADVANCE             1BSIX 000 N00117
R2IS311229990306201702062017ADVANCE        2SS31122999001001001000001000YYY64ADVANCE             1BSII 000 N00102
R2JC311229993105201726052017ADVANCE        2SS31122999001001001000001000YYY64ADVANCE             1BSOJ 000 N00117
R2JF311229990906201706062017ADVANCE        2SS31122999001001001000001000YYY64ADVANCE             1BBNL 000 N00117
R2JS311229990306201702062017ADVANCE        2SS31122999001001001000001000YYY64ADVANCE             1BSIQ 000 N00102
R2KC311229993105201726052017ADVANCE        2SS31122999001001001000001000YYY64ADVANCE             1BSOK 000 N00117
R2KF311229990906201706062017ADVANCE        2SS31122999001001001000001000YYY64ADVANCE             1BBNM 000 N00117
R2KS311229992208201721082017ADVANCE        2SS31122999001001001000001000NNN64ADVANCE             1BSGI 000 N00102
R2LC311229993105201726052017ADVANCE        2SS31122999001001001000001000YYY64ADVANCE             1BSOL 000 N00117
R2MC311229993105201726052017ADVANCE        2SS31122999001001001000001000YYY64ADVANCE             1BSOM 000 N00117
R2MF311229991706201708062017ADVANCE        2SS31122999001001001000001000NNN64ADVANCE             1BAMA 000 N00102
R2NF311229990201201817102017ADVANCE        2SS31122999001001001000001000NNN64ADVANCE             1BBNV  00 N00102
R2PA311229991910201911102019ADVANCE        2SS31122999001001001000001000NNN64ADVANCE             1BBMR  00 N00119
R2PB311229991910201911102019ADVANCE        2SS31122999001001001000001000NNN64ADVANCE             1BBMS  00 N00119
R2PC311229991910201911102019ADVANCE        2SS31122999001001001000001000NNN64ADVANCE             1BBMT  00 N00119
R2PD311229991910201911102019ADVANCE        2SS31122999001001001000001000NNN64ADVANCE             1BBMU  00 N00119
R2PE311229991910201911102019ADVANCE        2SS31122999001001001000001000NNN64ADVANCE             1BBMV  00 N00119
R2PF181020191010201918102019ADVANCE        2SS31122999001001001000001000NNN64ADVANCE             1BBMI  00 N00102
R2PF311229991910201911102019ADVANCE        2SS31122999001001001000001000NNN64ADVANCE             1BBMI  00 N00119
R2S0311229991310201711102017CLASSIC TWIN   2SS31122999002002002001001000YYY64CLASSIC TWIN        1BESO 000 N00108
R2S1311229991310201711102017CLASSIC TWIN   2SS31122999002002002001001000YYY64CLASSIC TWIN        1BESN 000 N00108
R2S2311229991310201711102017CLASSIC TWIN   2SS31122999002002002001001000YYY64CLASSIC TWIN        1BESM 000 N00108
R2S3311229991310201711102017CLASSIC TWIN   2SS31122999002002002001001000YYY64CLASSIC TWIN        1BESL 000 N00108
R2S4311229991310201711102017CLASSIC TWIN   2SS31122999002002002001001000YYY64CLASSIC TWIN        1BESK 000 N00108
R2S8311229990706201806062018CLASSIC TWIN   2SS31122999002002002001001000NNN64CLASSIC TWIN        1BEFL 000 N00108
R2S9311229990706201806062018CLASSIC TWIN   2SS31122999002002002001001000NNN64CLASSIC TWIN        1BEFM 000 N00108
R2SA311229992603201307042017STENA ADV PEAK 2SS31122999001001001000001000YYY87STENA ADV PEAK      1BSLJN000 N00118
R2SO311229992603201307042017STENA ADV O/P  2SS31122999001001001000001000YYY87STENA ADV O/P       1BSLKN000 N00118
R2SP311229990703201307042017STENA STDBY PK 2SS31122999001001001000001000YYY87STENA STDBY PK      1NSLLN000 N00118
R2SS311229990703201307042017STENA STDBY O/P2SS31122999001001001000001000YYY87STENA STNBY O/P     1NSLMN000 N00118
R2SZ030520191310201703052019CLSIC TWIN RM O2SS31122999002002002000002000YYY64CLASSIC TWIN RM OLY 1BZEC 000 N00120
R2SZ311229990405201902052019CC TW ROOM ONLY2SS31122999002002002000002000YYY64CLASSIC TW ROOM ONLY1BZEC 000 N00120
R2T0311229991310201711102017FIXD CLSIC TWIN2SS31122999002002002000002000YYY64FIXED CLASSIC TWIN  1BEST 000 N00117
R2T1311229991310201711102017FIXD CLSIC TWIN2SS31122999002002002000002000YYY64FIXED CLASSIC TWIN  1BESS 000 N00117
R2T2311229991310201711102017FIXD CLSIC TWIN2SS31122999002002002000002000YYY64FIXED CLASSIC TWIN  1BESR 000 N00117
R2T3311229991310201711102017FIXD CLSIC TWIN2SS31122999002002002000002000YYY64FIXED CLASSIC TWIN  1BESQ 000 N00117
R2T4311229991310201711102017FIXD CLSIC TWIN2SS31122999002002002000002000YYY64FIXED CLASSIC TWIN  1BESP 000 N00117
R2T8311229990706201806062018FIXD CLSIC TWIN2SS31122999002002002000002000NNN64FIXED CLASSIC TWIN  1BEFN 000 N00117
R2T9311229990706201806062018FIXD CLSIC TWIN2SS31122999002002002000002000NNN64FIXED CLASSIC TWIN  1BEFO 000 N00117
R2TM280620191505201928062019NETWRK STUD 4WK2NS31122999001001001001000000NNN00NETWORK STUDENT 4WK 0NNTG 980 N00120
R2TM311229992906201926062019NETWRK STUD 4WK2NS31122999001001001001000000NNN00NETWORK STUDENT 4WK 0NMTE 980 N00120
R3BD071220192401201929112019VT FLAT FARE   2SS31122999001001001000001000NNN64VT FLAT FARE        1BSFH  00 N00117
R3BD230120191601201923012019VT FLAT FARE   2SS31122999001001001000001000NNN64VT FLAT FARE        1BZZZ  00 N00117
R3BD311229990812201918112019AWC FLAT FARE  2SS31122999001001001000001000NNN64AWC FLAT FARE       1BSFH  00 N00117
R3DS3112299901062017290520173 DAY SEASON   2NS31122999001001001000001000NNN183 DAY SEASON        0NHIJ 000 N00118
R3MP3112299909072019010720193 MNTH TfW DUTY2NS31122999001001001000000000NNN003 MNTH TfW DUTY PASS0NHLR  00 N00120
R3PF311229991806201817052018LNER PROMO 1ST 1SF31122999001001001000001000YYY64LNER PROMO 1ST      1BACU 000 N00120
R3PS311229991806201817052018LNER PROMO STD 2SS31122999001001001000001000YYY64LNER PROMO STD      1BACU 000 N00120
R3TM311229991505201918072018NETWRK STUD DD 2NS31122999001001001000000000NNN00NET STUDENT DD      0NMTE 980 N00120
R3YF071220191501201929112019VT PROMO Y     1SS31122999001001001000001000NNN96VT PROMO Y          1BAGR  00 N00119
R3YF311229990812201918112019AWC PROMO Y    1SS31122999001001001000001000NNN96AWC PROMO Y         1BAGR  00 N00119
R3YS071220191501201929112019VT PROMO Y STD 2SS31122999001001001000001000NNN96VT PROMO Y STD      1BAGR  00 N00119
R3YS311229990812201918112019AWC PROMO Y STD2SS31122999001001001000001000NNN96AWC PROMO Y STD     1BAGR  00 N00119
R3ZF071220191501201929112019VT PROMO Z     2SS31122999001001001000001000NNN96VT PROMO Z          1BAGS  00 N00119
R3ZF311229990812201918112019AWC PROMO Z    2SS31122999001001001000001000NNN96AWC PROMO Z         1BAGS  00 N00119
R3ZS071220191501201906122019VT PROMO Z STD 2SS31122999001001001000001000NNN96VT PROMO Z STD      1BAGS  00 N00119
R3ZS311229990812201906122019AWC PROMO Z STD2SS31122999001001001000001000NNN96AWC PROMO Z STD     1BAGS  00 N00119
R42R311229991912200807042017FOUR 4TWO 2 RTN2RS31122999002002002002000000NYN79FOUR 4TWO 2 RTN     2NBDLN000 N00120
R42S311229991912200807042017FOUR 4TWO 2 SGL2SS31122999002002002002000000NYN96FOUR 4TWO 2 SGL     1NADLN000 N00120
R43R311229992402201107042017GROUP 5 RETURN 2RS31122999005005005003002000NYN79GROUP 5 RETURN      2NBDLN000 N00120
R43S311229992402201107042017GROUP 5 SINGLE 2SS31122999005005005003002000NYN96GROUP 5 SINGLE      1NADLN000 N00120
R44R311229992402201107042017GROUP RETURN   2RS31122999004003004002002000NYN79GROUP RETURN        2NBDLN000 N00120
R44S311229992402201107042017GROUP SINGLE   2SS31122999004003004002002000NYN96GROUP SINGLE        1NADLN000 N00120
R4DS3112299901062017290520174 DAY SEASON   2NS31122999001001001000001000NNN194 DAY SEASON        0NHIK 000 N00118
R4WK311229992406201720062017NET 1STPLUS 4WK1NF31122999001001001001000000NNN00NET 1STPLUS 4WK     0NMTE 980 N00120
R55C311229991008201007042017CLUB 55 HT FST 1RF31122999001001001000001000NNN97CLU5 55 HT FST      2NBETN000 N00120
R55D311229991008201007042017CLUB 55 HT STD 2RS31122999001001001000001000NNN97CLUB 55 HT STD      2NBETN000 N00120
R55E311229990209201207042017CLUB 55 EXCESS 9RP31122999001001001000000000NNN33CLUB 55 EXCESS      2NZVZN000 N00120
R55F240420192504201824042019CLUB 55 FIRST  1RF31122999001001001000000000NNN28CLUB 55 FIRST       2NBEN 000 N00120
R55F311229992504201923042019CLUB 55 FIRST  1RF31122999001001001000000000NNN28CLUB 55 FIRST       2NBEN 000 N00120
R55O311229990209201207042017CLUB 55 WEBSITE2RP31122999001001001000000000NNN33CLUB 55 WEBSITE     2NBOBN000 N00120
R55P220820190509201722082019CLUB 55 ANYDAY 2RP31122999001001001000000000NNN33CLUB 55 ANYDAY      2NBOA 000 N00120
R55P311229992308201922082019CLUB 50 ANYDAY 2RP31122999001001001000000000NNN33CLUB 50 ANYDAY      2NBOA 000 N00120
R55S240420192504201824042019CLUB 55 STD    2RS31122999001001001000000000NNN28CLUB 55 STD         2NBEN 000 N00120
R55S311229992504201923042019CLUB 55 STD    2RS31122999001001001000000000NNN28CLUB 55 STD         2NBEN 000 N00120
R55W311229990209201207042017CLUB55 NOT FRDY2RS31122999001001001000000000NNN33CLUB55 NOT FRDY     2NBRAN000 N00120
R6F1311229990606201801062018DISCOUNT FAM 1 1SS31122999006002002001004001NNN64DISCOUNT FAMILY 1ST 1BHFO  00 N00120
R6F2311229990606201804062018DISCOUNT FAM   2SS31122999006002002001004001NNN64DISCOUNT FAMILY STD 1BHFO  00 N00120
R6MP3112299909072019010720196 MNTH TfW DUTY2NS31122999001001001000000000NNN006 MNTH TfW DUTY PASS0NHLS  00 N00120
R7AF311229990906201706062017SEVEN DAY 1ST  1NF31122999001001001000001000NNN00SEVEN DAY 1ST       0NMQB 980 N00118
R7AS311229990906201706062017SEVEN DAY STD  2NS31122999001001001000001000NNN00SEVEN DAY STD       0NMQB 980 N00118
R7BF3112299923012018220120187 DAY VIA BUS  1NS31122999001001001000001000NNN007 DAY SEASON VIA BUS0NMQA 980 N00105
R7BR3112299910032009070420177DAY BUSRL DC  2NS31122999001001001000000000NNN007DAY BUSRL DC       0NMQAN980 N00120
R7BS311229990306199907042017BUS 7 DAY      2NS31122999001001001000001000NNN00BUS 7 DAY SEASON    0NMQAN980 N00118
R7CA3112299910032009070420177 DY COUNTYCARD2NS31122999001000001000000000NNN007 DY COUNTY CARD    0NMQAN980 N00120
R7CT311229992406201720062017NETWORK 1 WEEK 2NS31122999001001001000001000NNN00NETWORK 1 WEEK      0NJTG 980 N00119
R7D1311229992505201724052017ANG+1ST 7DY    1NF31122999001001001000001000NNN00ANGLIA PLUS 1ST 7DAY0NMQA 980 N00118
R7DA311229992505201724052017ANGLIA 7DAY    2NS31122999001000001000001000NNN00ANGLIA PLUS 7DAY    0NMQA 980 N00118
R7DB3112299923012018220120187 DAY VIA BUS  2NS31122999001001001000001000NNN007 DAY SEASON VIA BUS0NMQA 980 N00105
R7DF311229992305201722052017SEVEN DAY   1ST1NF31122999001001001000001000NNN007DAY FIRST SEASON   0NMQA 980 N00105
R7DS311229992305201722052017SEVEN DAY   STD2NS31122999001001001000001000NNN007DAY STANDARD SEASON0NMQA 980 N00105
R7FF3112299903062017010620177DAY FIXED  1ST1NF31122999001001001000001000NNN007 DAY FIXED FIRST   0NMQA 980 N00105
R7FS3112299903062017010620177DAY FIXED  STD2NS31122999001001001000001000NNN007 DAY FIXED STANDARD0NMQA 980 N00105
R7GC3112299901082019310720197 DAY GREEN STD2NS31122999001001001000001000NNN007DAY GREEN STD SEASO0NMQA 980 N00105
R7GF3112299901082019310720197 DAY GREEN 1ST1NS31122999001001001000001000NNN007DAY GREEN 1STSEASON0NMQA 980 N00105
R7OS3112299918102019171020197 Day Season OP2NS31122999001001001000001000NNN007 Day Season OP     0NMQN 980 N00105
R7PS311229990703200607042017CARDIFF SEVEN  2NS31122999001001001000001000NNN00CARDIFF SEVEN       0NMQAN980 N00120
R7TA311229990209201814052018TRAVELCARD  7DS2NS31122999001001001000001000NNN00TRAVELCARD WLY STD  0NMQA 980 N00105
R7TF311229992005201811052018TRAVELCARD  7DF1NF31122999001001001000001000NNN00TRAVELCARD WKLY 1ST 0NMQA 980 N00105
R7TS311229992005201811052018TRAVELCARD  7DS2NS31122999001001001000001000NNN00TRAVELCARD WLY STD  0NMQA 980 N00105
R91A311229990407200807042017ITX LOW RETURN 1RF31122999001001001000001000NNN97ITX LOW RETURN      2NBGON000 N00120
R91B311229990110201407042017ITX LOW RETURN 2RS31122999001001001000001000NNN97ITX LOW RETURN      2NBGON000 N00120
R91C071220192701201529112019VTWC1 BILAT GRP1RF31122999001001001000001000NNN97VTWC1 BILAT GRP     2NHFD 000 N00120
R91C311229990812201918112019AWC 1 BILAT GRP1RF31122999001001001000001000NNN97AWC 1 BILAT GRP     2NHFD 000 N00120
R91D071220192701201529112019VTWC2 BILAT GRP2RS31122999001001001000001000NNN97VTWC2 BILAT GRP     2NHFD 000 N00120
R91D311229990812201918112019AWC 2 BILAT GRP2RS31122999001001001000001000NNN97AWC 2 BILAT GRP     2NHFD 000 N00120
R91G311229992804201107042017GC BILTRL 1ST  1RF31122999001001001000001000NNN97GC BILTRL 1ST       2NBFDN000 N00120
R91H311229993008201107042017SUPERBREAKS ITX1RF31122999001001001000001000NNN97SUPERBREAKS ITX     2NHKMN000 N00120
R91I311229993008201107042017SUPERBREAKS ITX2RS31122999001001001000001000NNN97SUPERBREAKS ITX     2NHKMN000 N00120
R91J311229990506201702062017TPE BILAT_1_HE 1RF31122999002002002000002000NNN97TPE BILAT_1_HE      2NBND 000 N00120
R91K311229990506201702062017TPE BILAT_2_HE 2RS31122999002002002000002000NNN97TPE BILAT_2_HE      2NBND 000 N00120
R92A311229990407200807042017ITX LOW SINGLE 1SF31122999001001001000001000NNN97ITX LOW SINGLE      1NAGON000 N00120
R92B311229990407200807042017ITX LOW SINGLE 2SS31122999001001001000001000NNN96ITX LOW SINGLE      1NAGON000 N00120
R92G311229992804201107042017GC BILTRL STD  2RS31122999001001001000001000NNN97GC BILTRL STD       2NBFDN000 N00120
R93A311229990407200807042017ITX HIGH RETURN1RF31122999001001001000001000NNN97ITX HIGH RETURN     2NBFDN000 N00120
R93B311229990110201407042017ITX HIGH RETURN2RS31122999001001001000001000NNN97ITX HIGH RETURN     2NBFDN000 N00120
R94A311229990407200807042017ITX HIGH SINGLE1SF31122999001001001000001000NNN97ITX HIGH SINGLE     1NAFDN000 N00120
R94B311229990407200807042017ITX HIGH SINGLE2SS31122999001001001000001000NNN96ITX HIGH SINGLE     1NAFDN000 N00120
R95A311229990407200807042017ITX LO RTN COMP1RF31122999001001001000001000NNN97ITX LO RTN COMP     2NRZBN000 N00120
R95B311229990110201407042017ITX LO RTN COMP2RS31122999001001001000001000NNN97ITX LO RTN COMP     2NRZBN000 N00120
R96A311229990407200807042017ITX LO SGL COMP1SF31122999001001001000001000NNN97ITX LO SGL COMP     1NSZBN000 N00120
R96B311229990407200807042017ITX LO SGL COMP2SS31122999001001001000001000NNN96ITX LO SGL COMP     1NSZBN000 N00120
R97A311229990407200807042017ITX HI RTN COMP1RF31122999001001001000001000NNN97ITX HI RTN COMP     2NRZAN000 N00120
R97B311229990110201407042017ITX HI RTN COMP2RS31122999001001001000001000NNN97ITX HI RTN COMP     2NRZAN000 N00120
R97C050620192704201905062019BI LAT RTN 1 HI1RS31122999001001001000001000NNN97BI LAT RTN 1 HI     2NRZA 000 N00120
R97C311229990606201905062019BI LAT RTN 1 HI1RS31122999001001001000001000NNN97BI LAT RTN 1 HI     2NBMK 000 N00120
R97D050620192704201905062019BI LAT RTN 1 LO2RS31122999001001001000001000NNN97BI LAT RTN 1 LOW    2NRZA 000 N00120
R97D311229990606201905062019BI LAT RTN 1 LO2RS31122999001001001000001000NNN97BI LAT RTN 1 LOW    2NBML 000 N00120
R97E050620192704201905062019BI LAT RTN 2 HI2RS31122999001001001000001000NNN97BI LAT RTN 2 HI     2NRZA 000 N00120
R97E311229990606201905062019BI LAT RTN 2 HI2RS31122999001001001000001000NNN97BI LAT RTN 2 HI     2NBMK 000 N00120
R97F050620192704201905062019BI LAT RTN 2 LO2RS31122999001001001000001000NNN97BI LAT RTN 2 LOW    2NRZA 000 N00120
R97F311229990606201905062019BI LAT RTN 2 LO2RS31122999001001001000001000NNN97BI LAT RTN 2 LOW    2NBML 000 N00120
R98A311229990407200807042017ITX HI SGL COMP1SF31122999001001001000001000NNN97ITX HI SGL COMP     1NSZAN000 N00120
R98B311229990407200807042017ITX HI SGL COMP2SS31122999001001001000001000NNN96ITX HI SGL COMP     1NSZAN000 N00120
R98C311229990502201207042017GA-BILATERAL 1R1RF31122999001001001000001000NNN97GA-BILATERAL 1R     2NHSMN000 N00120
R98D060320191110201006032019NX-BILATERAL 2R2RS31122999001001001000001000NNN97NX-BILATERAL 2R     2NHSM 000 N00120
R98F311229990909201407042017TLGN BILTRL_1ST1RF31122999001001001000001000NNN97TLGN BILTRL_1ST     2NHQCN000 N00120
R98G311229990909201407042017TLGN BILTRL_STD2RS31122999001001001000001000NNN97TLGN BILTRL_STD     2NHQCN000 N00120
R98H311229990909201407042017TLGN BILAT_1_HE1RF31122999001001001000001000NNN97TLGN BILAT_1_HE     2NHQGN000 N00120
R98I311229990909201407042017TLGN BILAT_2_HE2RS31122999001001001000001000NNN97TLGN BILAT_2_HE     2NHQGN000 N00120
R98J311229990306201701062017XC BILTRL 1ST H1RF31122999001001001000000000YYY97XC BILTRL 1ST H     2NBFD 000 N00120
R98K311229990306201701062017XC BILTRL 1ST L1RF31122999001001001000000000YYY97XC BILTRL 1ST L     2NBGO 000 N00120
R98L311229990306201701062017XC BILTRL STD H2RS31122999001001001000000000YYY97XC BILTRL STD H     2NBFD 000 N00120
R98M311229990306201701062017XC BILTRL STD L2RS31122999001001001000000000YYY97XC BILTRL STD L     2NBGO 000 N00120
R98N311229991004201207042017FHT SUPBREAK1ST1RF31122999001001001000000000YYY97FHT SUPBREAK1ST     2NBNBN000 N00120
R98P311229991004201207042017FHT SUPBREAKSTD2RS31122999001001001000000000YYY97FHT SUPBREAKSTD     2NBNBN000 N00120
R98R311229992207201007042017EM-BILAT 2R HE 2RS31122999001001001000001000NNN97EM-BILAT 2R HE      2NBICN000 N00120
R98S311229992207201007042017EM-BILAT 1R HE 1RF31122999001001001000001000NNN97EM-BILAT 1R HE      2NBICN000 N00120
R98T311229992907201007042017EM-BILAT 2R RT 2RS31122999001001001000001000NNN97EM-BILAT 2R RT      2NBIDN000 N00120
R98U311229992907201007042017EM-BILAT 1R RT 1RF31122999001001001000001000NNN97EM-BILAT 1R RT      2NBIDN000 N00120
R98V311229990709201007042017RAILTRL ITX 1ST1RF31122999001001001000001000NNN97RAILTRL ITX 1ST     2NHKHN000 N00120
R98W311229990709201007042017RAILTRL ITX STD2RS31122999001001001000001000NNN97RAILTRL ITX STD     2NHKHN000 N00120
R98X311229990905201207042017ITX PACKAGE 1ST1RF31122999001001001000000000YYY97ITX PACKAGE 1ST     2NHKON000 N00120
R98Y311229990905201207042017ITX PACKAGE    2RS31122999001001001000000000YYY97ITX PACKAGE         2NHKON000 N00120
R99A311229991806201817052018LNER BTL 2R-HE 2RS31122999001001001000001000NNN97LNER BTL 2R-HE      2NHBB 000 N00120
R99B311229991806201817052018LNER BTL 1R GRJ1RF31122999001001001000001000NNN97LNER BTL 1R GRJ     2NHBB 000 N00120
R99C311229991806201817052018LNER BTL 2R SB 2RS31122999001001001000001000NNN97LNER BTL 2R SB      2NHBC 000 N00120
R99D311229991806201817052018LNER BTL 1R SB 1RF31122999001001001000001000NNN97LNER BTL 1R SB      2NHBC 000 N00120
R99E311229991806201817052018LNER BTL 2R GRJ2RS31122999001001001000001000NNN97LNER BTL 2R GRJ     2NHBE 000 N00120
R99F311229991806201817052018LNER BTL 1R GRJ1RF31122999001001001000001000NNN97LNER BTL 1R GRJ     2NHBE 000 N00120
R99G311229991806201817052018LNER BTL 2R RT 2RS31122999001001001000001000NNN97LNER BTL 2R RT      2NHBG 000 N00120
R99H311229991806201817052018LNER BTL 1R RT 1RF31122999001001001000001000NNN97LNER BTL 1R RT      2NHBG 000 N00120
R99I311229992403201007042017WRXSH_ITX_HEF  1RF31122999001001001000001000NNN97WRXSH_ITX_HEF       2NBMCN000 N00120
R99J311229992403201007042017WRXSH_ITX_HES  2RS31122999001001001000001000NNN97WRXSH_ITX_HES       2NBMCN000 N00120
R99K311229992403201007042017CHILTERN_ITX_HE2RS31122999001001001000001000NNN97CHILTERN_ITX_HE     2NHOXN000 N00120
R99L071220192701201529112019VTWC 1 BILAT   1RF31122999001001001000001000NNN97VTWC 1 BILAT        2NHFB 000 N00120
R99L311229990812201918112019AWC 1 BILAT    1RF31122999001001001000001000NNN97AWC 1 BILAT         2NHFB 000 N00120
R99M311229991806201817052018LNER TTIC 2R HE2RS31122999001001001000001000NNN97LNER TTIC 2R HE     2NBBB 000 N00120
R99N311229991806201817052018LNER TTIC 1R HE1RF31122999001001001000001000NNN97LNER TTIC 1R HE     2NBBB 000 N00120
R99O071220192701201529112019VTWC 2 BILAT   2RS31122999001001001000001000NNN97VTWC 2 BILAT        2NHFB 000 N00120
R99O311229990812201918112019AWC 2 BILAT    2RS31122999001001001000001000NNN97AWC 2 BILAT         2NHFB 000 N00120
R99P311229991806201817052018LNER TTIC 2R SB2RS31122999001001001000001000NNN97LNER TTIC 2R SB     2NBBC 000 N00120
R99Q311229991806201817052018LNER TTIC 1R SB1RF31122999001001001000001000NNN97LNER TTIC 1R SB     2NBBC 000 N00120
R99R311229991202201007042017EM-BILATERAL 2R2RS31122999001001001000001000NNN97EM-BILATERAL 2R     2NBIBN000 N00120
R99S311229991202201007042017EM-BILATERAL 1R1RF31122999001001001000001000NNN97EM-BILATERAL 1R     2NBIBN000 N00120
R99T311229992602201007042017GW-BILATERAL 1R1RF31122999001001001000000000NNN97GW-BILATERAL 1R     2NHKFN000 N00120
R99U311229992602201007042017GW-BILATERAL 2R2RS31122999001001001000000000NNN97GW-BILATERAL 2R     2NHKFN000 N00120
R99V311229990502201207042017GA-BILATERAL 1R1RF31122999001001001000001000NNN97GA-BILATERAL 1R     2NHSCN000 N00120
R99W311229990502201207042017GA-BILATERAL 2R2RS31122999001001001000001000NNN97GA-BILATERAL 2R     2NHSCN000 N00120
R99X311229992403201007042017CHILTERN ITX SB2RS31122999001001001000001000NNN97CHILTERN ITX SB     2NHOXN000 N00120
R99Y311229992403201007042017WRXMSH ITX SBF 1RF31122999001001001000001000NNN97WRXMSH ITX SBF      2NHOXN000 N00120
R99Z311229992403201007042017WRXMSH ITX SBS 2RS31122999001001001000001000NNN97WRXMSH ITX SBS      2NHOXN000 N00120
RA02311229992505201724052017ANGLIA 1MTH    2NS31122999001001001000001000NNN00ANGLIA PLUS 1 MONTH 0NMTE 980 N00118
RA03311229992505201724052017ANGLIA 12 MONTH2NS31122999001001001000001000NNN00ANGLIA PLUS 12 MONTH0NMTE 980 N00118
RA04311229992505201724052017ANG+1ST 1MH    1NF31122999001001001000001000NNN00ANGLIA PLUS 1ST 1MTH0NMTE 980 N00118
RA05311229992505201724052017ANG+1ST 12M    1NF31122999001001001000001000NNN00ANGLIA + 1ST 12MONTH0NMTE 980 N00118
RA18080420190706201808042019FIXED SOLO+CHLD2SS31122999002002001001001001NNN64CLSC FIXED SOLO+CHLD1BEFJ 000 N00120
RA18311229990904201905042019FIXED SOLO+CHLD2SS31122999002002001001001001NNN64CLSC FIXED SOLO+CHLD1BEFJ 000 N00117
RA19080420190706201808042019FIXED SOLO+CHLD2SS31122999002002001001001001NNN64CLSC FIXED SOLO+CHLD1BEFK 000 N00120
RA19311229990904201905042019FIXED SOLO+CHLD2SS31122999002002001001001001NNN64CLSC FIXED SOLO+CHLD1BEFK 000 N00117
RA20080420190201201808042019FIXED SOLO+CHLD2SS31122999002002001001001001YYY64CLSC FIXED SOLO+CHLD1BSNL 000 N00120
RA20311229990904201905042019FIXED SOLO+CHLD2SS31122999002002001001001001YYY64CLSC FIXED SOLO+CHLD1BSNL 000 N00117
RA21080420190201201808042019FIXED SOLO+CHLD2SS31122999002002001001001001YYY64CLSC FIXED SOLO+CHLD1BSNM 000 N00120
RA21311229990904201905042019FIXED SOLO+CHLD2SS31122999002002001001001001YYY64CLSC FIXED SOLO+CHLD1BSNM 000 N00117
RA22080420190201201808042019FIXED SOLO+CHLD2SS31122999002002001001001001YYY64CLSC FIXED SOLO+CHLD1BSNN 000 N00120
RA22311229990904201905042019FIXED SOLO+CHLD2SS31122999002002001001001001YYY64CLSC FIXED SOLO+CHLD1BSNN 000 N00117
RA23080420190201201808042019FIXED SOLO+CHLD2SS31122999002002001001001001YYY64CLSC FIXED SOLO+CHLD1BSNO 000 N00120
RA23311229990904201905042019FIXED SOLO+CHLD2SS31122999002002001001001001YYY64CLSC FIXED SOLO+CHLD1BSNO 000 N00117
RA24080420190201201808042019FIXED SOLO+CHLD2SS31122999002002001001001001YYY64CLSC FIXED SOLO+CHLD1BSNP 000 N00120
RA24311229990904201905042019FIXED SOLO+CHLD2SS31122999002002001001001001YYY64CLSC FIXED SOLO+CHLD1BSNP 000 N00117
RA40311229991310201711102017FIXED CL F 2 RM2SS31122999004003002001003001YYY64FIXD CLC FAM 2 ROOMS1BSNQ 000 N00120
RA41311229991310201711102017FIXED CL F 2 R 2SS31122999004003002001003001YYY64FIXD CLC FAM 2 ROOMS1BSNR 000 N00120
RA42311229991310201711102017FIXD CL FAM 2 R2SS31122999004003002001003001YYY64FIXD CLC FAM 2 ROOMS1BSNS 000 N00120
RA43311229991310201711102017FIXD CL FAM 2 R2SS31122999004003002001003001YYY64FIXD CLC FAM 2 ROOMS1BSNT 000 N00120
RA44311229991310201711102017FIXD CL FAM 2 R2SS31122999004003002001003001YYY64FIXD CLC FAM 2 ROOMS1BSNU 000 N00120
RA60311229991310201711102017FIXD CL FAM 3 R2SS31122999006005003001005002YYY64FIXD CLC FAM 3 ROOMS1BSNV 000 N00120
RA61311229991310201711102017FIXD CL FAM 3 R2SS31122999006005003001005002YYY64FIXD CLC FAM 3 ROOMS1BSNW 000 N00120
RA62311229991310201711102017FIXD CL FAM 3 R2SS31122999006005003001005002YYY64FIXD CLC FAM 3 ROOMS1BSNX 000 N00120
RA63311229991310201711102017FIXD CL FAM 3 R2SS31122999006005003001005002YYY64FIXD CLC FAM 3 ROOMS1BSNY 000 N00120
RA64311229991310201711102017FIXD CL FAM 3 R2SS31122999006005003001005002YYY64FIXD CLC FAM 3 ROOMS1BSNZ 000 N00120
RAA1311229990906201706062017AIRPORT ADV 1ST1SF31122999001001001000001000YYY96AIRPORT ADV 1ST     1BAMR 000 N00117
RAA2311229990906201706062017AIRPORT ADV STD2SS31122999001001001000001000YYY96AIRPORT ADV STD     1BBNN 000 N00117
RAAB311229990209201823052018ANYTIME DAY R  2RS31122999001001001000001000NNN81ANYTIME DAY R       2NBAF 000 N00101
RAAC311229990504201904042019RAILSEA DAY RTN2RS31122999001001001000001000NNN81RAIL SEA DAY RETURN 2NBAF 000 S00101
RAAD311229992908201927082019OFF-PEAK DAY R 2RS31122999001001001000001000NNN85OFF-PEAK DAY R      2NBDY 000 N00104
RAAE311229992908201927082019KIDS R STHEASTN2RS31122999001001000000001000NNN84KIDS R SOUTHEASTERN 2NBFP 000 N00119
RAAF311229992908201927082019SUPR OFFPK DY R2RS31122999001001001000001000NNN81SUPR OFFPK DY R     2NHUA 000 N00103
RAB1311229990906201706062017AIRPORT ADV 1ST1SF31122999001001001000001000YYY96AIRPORT ADV 1ST     1BAMS 000 N00117
RAB2311229990607201730062017AIRPORT ADV STD2SS31122999001001001000001000YYY96AIRPORT ADV STD     1BBNO 000 N00117
RACP311229992406201720062017NET 1STPLUS52WK1NF31122999001001001000000000NNN00NET 1STPLUS52WK     0NMTE 980 N00120
RACS311229992406201720062017NETWORK ANNUAL 2NS31122999001001001000001000NNN00NETWORK ANNUAL      0NTTG 980 N00120
RAD1311229990906201706062017AIRPORT ADV 1ST1SF31122999001001001000001000YYY96AIRPORT ADV 1ST     1BAMT 000 N00117
RADC311229990506201702062017ADMIT CONC1MNTH9SS31122999001001001000001000NNN71ADMIT CONC1MNTH     1NZWM 000 N00120
RADM311229990506201702062017ADMISSION 1MNTH9SS31122999001001001000001000NNN71ADMISSION 1MNTH     1NZWW 000 N00120
RADR311229991608201815082018PROMO CDR      2RP31122999001001001000001000NNY85PROMO CDR           2NBCS 000 N00104
RADS311229991608201815082018PROMO CDS      2SP31122999001001001000001000NNY88PROMO CDS           1NAGD 000 N00104
RADT311229992005201814052018ANYTIME DAY TC 2RS31122999001001001000001000NNN81ANYTIME DAY TC      2NBAF 980 N00113
RAE1311229990906201706062017AIRPORT ADV 1ST1SF31122999001001001000001000YYY96AIRPORT ADV 1ST     1BAMU 000 N00117
RAER311229990208201925072019PROMO OPDR     2RS31122999001001001000001000NNN85PROMO OPDR          2NHDN 000 N00104
RAES311229990208201925072019PROMO OPDS     2SS31122999001001001000001000NNN88PROMO OPDS          1NHDM 000 N00104
RAF1311229990906201706062017AIRPORT ADV 1ST1SF31122999001001001000001000YYY96AIRPORT ADV 1ST     1BAMV 000 N00117
RAFS311229992505201724052017AGA 1ST SUPPLT 1SF31122999001001001000001000NNN87AGA 1ST SUPPLT      1NZWR 000 N00120
RAFW3112299915122019211020191ST SUPPLEMENT 1SS31122999001001001000001000NNN87GA 1ST SUPPLEMENT   1NZAF 000 N00101
RAG1311229990906201706062017AIRPORT ADV 1ST1SF31122999001001001000001000YYY96AIRPORT ADV 1ST     1BANH 000 N00117
RAG2311229990906201706062017AIRPORT ADV STD2SS31122999001001001000001000YYY96AIRPORT ADV STD     1BAMR 000 N00117
RAGR311229990208201925072019PROMO OPDR     2RS31122999001001001000001000NNN85PROMO OPDR          2NHDP 000 N00104
RAGS311229990208201925072019PROMO OPDS     2SS31122999001001001000001000NNN88PROMO OPDS          1NHDO 000 N00104
RAH1311229990906201706062017AIRPORT ADV 1ST1SF31122999001001001000001000YYY96AIRPORT ADV 1ST     1BANI 000 N00117
RAH2311229990906201706062017AIRPORT ADV STD2SS31122999001001001000001000YYY96AIRPORT ADV STD     1BAMS 000 N00117
RAHR311229990208201926072019PROMO OPDR     2RS31122999001001001000001000NNN85PROMO OPDR          2NHDU 000 N00104
RAHS311229990208201926072019PROMO OPDS     2SS31122999001001001000001000NNN88PROMO OPDS          1NHDT 000 N00104
RAI1311229990906201706062017AIRPORT ADV 1ST1SF31122999001001001000001000YYY96AIRPORT ADV 1ST     1BANJ 000 N00117
RAI2311229990906201706062017AIRPORT ADV STD2SS31122999001001001000001000YYY96AIRPORT ADV STD     1BAMT 000 N00117
RAJ1311229990906201706062017AIRPORT ADV 1ST1SF31122999001001001000001000YYY96AIRPORT ADV 1ST     1BBNN 000 N00117
RAJ2311229990906201706062017AIRPORT ADV STD2SS31122999001001001000001000YYY96AIRPORT ADV STD     1BAMU 000 N00117
RAJR311229990102202031012020PROMO OPDR     2RS31122999001001001000001000NNN85PROMO OPDR          2NHDU 000 N00104
RAJS311229990102202031012020PROMO OPDS     2SS31122999001001001000001000NNN88PROMO OPDS          1NHDT 000 N00104
RAK1311229990906201706062017AIRPORT ADV 1ST1SF31122999001001001000001000YYY96AIRPORT ADV 1ST     1BBNO 000 N00117
RAK2311229990906201706062017AIRPORT ADV STD2SS31122999001001001000001000YYY96AIRPORT ADV STD     1BAMV 000 N00117
RAKR311229990102202031012020PROMO OPDR     2RS31122999001001001000001000NNN85PROMO OPDR          2NHDU 000 N00104
RAKS311229990102202031012020PROMO OPDS     2SS31122999001001001000001000NNN88PROMO OPDS          1NHDT 000 N00104
RAL2311229990906201706062017AIRPORT ADV STD2SS31122999001001001000001000YYY96AIRPORT ADV STD     1BANH 000 N00117
RALO311229992010201407042017LOYALTY OFF PK 2RS31122999001001001000000000NNY85LOYALTY OFF PK      2NHTZN000 N00120
RALP311229990906201706062017ALPAMARE ADMIT 9SS31122999001001001000001000NNN71ALPAMARE ADMIT      1NZWW 000 S00120
RAM1311229991604201207042017SUP OFFPK DAY S2SS31122999001001001000001000NNY88SUP OFFPK DAY S     1NHWCN000 N00103
RAM2311229991604201207042017SUP OFFPK DAY R2RS31122999001001001000001000NNY85SUP OFFPK DAY R     2NHWDN000 N00103
RAM3311229992005201814052018SUP OFFPK DAYTC2RS31122999001001001000001000NNY81SUP OFFPK DAYTC     2NHWB 980 N00103
RAN2311229990906201706062017AIRPORT ADV STD2SS31122999001001001000001000YYY96AIRPORT ADV STD     1BANI 000 N00117
RAO2311229990906201706062017AIRPORT ADV STD2SS31122999001001001000001000YYY96AIRPORT ADV STD     1BANJ 000 N00117
RAP2311229990201201818102017AIRPORT ADV STD2SS31122999001001001000001000NNN96AIRPORT ADV STD     1BBNW 000 N00117
RAQ2311229991410201713102017ADVANCE        2SS31122999001001001000001000NNN64ADVANCE             1BZZZ  00 N00117
RAR1311229992505201724052017RAIL-AIR RETURN1RF31122999001001001000001000NNN72RAIL-AIR RETURN     2NBAI 000 N00119
RAR2311229992505201724052017RAIL-AIR RETURN2RS31122999001001001000001000NNN72RAIL-AIR RETURN     2NBAI 000 N00119
RARM311229992406201720062017NTRAIN ANNUAL  2NS31122999001001001000001000NNN00NTRAIN ANNUAL       0NMTE 980 N00120
RARN311229991410201809102018TFW RUGBYTRAIN22RS31122999001001001000001000NNN56TFW RUGBYTRAIN2     2NBDA 000 N00120
RARR311229991410201809102018TFW RUGBYTRAIN11RF31122999001001001000001000NNN56TFW RUGBYTRAIN1     2NBDA 000 N00120
RAS1311229992505201724052017RAIL-AIR SINGLE1SF31122999001001001000001000NNN87RAIL-AIR SINGLE     1NAAB 000 N00119
RAS2311229992505201724052017RAIL-AIR SINGLE2SS31122999001001001000001000NNN87RAIL-AIR SINGLE     1NAAD 000 N00119
RASV311229992305201722052017BUSINES ADVANCE2RS31122999001001001000001000YYY84BUSINESS ADVANCE    2BBED 000 N00106
RATR311229992105201820032018ASC10.00GBP VCR9SS31122999001001001000001000NNN83ASC10.00GBP VCR     1NZUM 000 N00120
RATS311229992105201820032018ASC10.00GBP VCR9SS31122999001001001000001000NNN83ASC10.00GBP VCR     1NZUK 000 N00120
RATT311229992902201607042017ASC 5.00GBP VCR9SS31122999001001001000001000NNN83ASC 5.00GBP VCR     1NZUKN000 N00120
RATV311229992111201407042017ASC GBP5.00 VCR9SS31122999001001001000001000NNN83ASC GBP5.00 VCR     1NZYQN000 N00120
RAVK100120191412201810012019ADVANCE PROMO  2SS31122999001001001000001000YYY64ADVANCE PROMO       1BEBA 000 N00120
RAVK311229991101201910012019ADVANCE PROMO  2SS31122999001001001000001000YYY64ADVANCE PROMO       1BEBA 000 N00119
RAVL100120191412201810012019ADV PROMO 1ST  1SF31122999001001001000001000YYY64ADV PROMO 1ST       1BEBA 000 N00120
RAVL311229991101201910012019ADV PROMO 1ST  1SF31122999001001001000001000YYY64ADV PROMO 1ST       1BEBA 000 N00119
RAVM090120201412201809012020ADVANCE PROMO  2SS31122999001001001000001000YYY64ADVANCE PROMO       1BEBB 000 N00117
RAVM311229991001202009012020ADVANCE PROMO  2SS31122999001001001000001000YYY64ADVANCE PROMO       1BEBB 000 N00119
RAVN090120201412201809012020ADV PROMO 1ST  1SF31122999001001001000001000YYY64ADV PROMO 1ST       1BEBB 000 N00117
RAVN311229991001202009012020ADV PROMO 1ST  1SF31122999001001001000001000YYY64ADV PROMO 1ST       1BEBB 000 N00119
RAVO090120201412201809012020ADVANCE PROMO  2SP31122999001001001000001000YYY64ADVANCE PROMO       1BSKZ 000 N00117
RAVO311229991001202009012020ADVANCE PROMO  2SP31122999001001001000001000YYY64ADVANCE PROMO       1BSKZ 000 N00119
RAVP090120201412201809012020ADV PROMO 1ST  1SF31122999001001001000001000YYY64ADV PROMO 1ST       1BSJG 000 N00117
RAVP311229991001202009012020ADV PROMO 1ST  1SF31122999001001001000001000YYY64ADV PROMO 1ST       1BSJG 000 N00119
RAVR010520191005201801052019PROMO DAY RTN  2RS31122999001001001000001000YYY77PROMO DAY RETURN    2NHUM 000 N00119
RAVR311229990205201901052019PROMO DAY RTN  2RS31122999001001001000001000YYY78PROMO DAY RETURN    2NHUM 000 N00119
RAW1311229991104201207042017ADVANCE 1ST    1SF31122999001001001000001000YYY64ADVANCE 1ST         1BSLAN000 N00102
RAWR311229991410201808102018TFW RESERVATION2SS31122999001001001000000000NNN96TFW RESERVATION     1NZWG 290 N00120
RAX0080420190201201808042019CLSC SOLO+CHILD2SS31122999002002001001001001NNN64CLSC SOLO+CHILD     1BEFC  00 N00120
RAX0120720190904201912072019CLSC SOLO+CHILD2SS31122999002002001001001001NNN64CLSC SOLO+CHILD     1BEFC  00 N00103
RAX0311229991307201911072019CLSC SOLO+CHILD2SS31122999002002001001001001NNN64CLSC SOLO+CHILD     1BEFC  00 N00103
RAX1080420190201201808042019CLSC SOLO+CHILD2SS31122999002002001001001001NNN64CLSC SOLO+CHILD     1BEFD  00 N00120
RAX1120720190904201912072019CLSC SOLO+CHILD2SS31122999002002001001001001NNN64CLSC SOLO+CHILD     1BEFD  00 N00103
RAX1311229991307201911072019CLSC SOLO+CHILD2SS31122999002002001001001001NNN64CLSC SOLO+CHILD     1BEFD  00 N00103
RAX2080420190201201808042019CLSC SOLO+CHILD2SS31122999002002001001001001NNN64CLSC SOLO+CHILD     1BEFE  00 N00120
RAX2120720190904201912072019CLSC SOLO+CHILD2SS31122999002002001001001001NNN64CLSC SOLO+CHILD     1BEFE  00 N00103
RAX2311229991307201911072019CLSC SOLO+CHILD2SS31122999002002001001001001NNN64CLSC SOLO+CHILD     1BEFE  00 N00103
RAX3080420190201201808042019CLSC SOLO+CHILD2SS31122999002002001001001001NNN64CLSC SOLO+CHILD     1BEFF  00 N00120
RAX3120720190904201912072019CLSC SOLO+CHILD2SS31122999002002001001001001NNN64CLSC SOLO+CHILD     1BEFF  00 N00103
RAX3311229991307201911072019CLSC SOLO+CHILD2SS31122999002002001001001001NNN64CLSC SOLO+CHILD     1BEFF  00 N00103
RAX4080420190201201808042019CLSC SOLO+CHILD2SS31122999002002001001001001NNN64CLSC SOLO+CHILD     1BEFG  00 N00120
RAX4120720190904201912072019CLSC SOLO+CHILD2SS31122999002002001001001001NNN64CLSC SOLO+CHILD     1BEFG  00 N00103
RAX4311229991307201911072019CLSC SOLO+CHILD2SS31122999002002001001001001NNN64CLSC SOLO+CHILD     1BEFG  00 N00103
RAX8080420190706201808042019CLSC SOLO+CHILD2SS31122999002002001001001001NNN64CLSC SOLO+CHILD     1BEFA  00 N00120
RAX8120720190904201912072019CLSC SOLO+CHILD2SS31122999002002001001001001NNN64CLSC SOLO+CHILD     1BEFA  00 N00103
RAX8311229991307201911072019CLSC SOLO+CHILD2SS31122999002002001001001001NNN64CLSC SOLO+CHILD     1BEFA  00 N00103
RAX9080420190706201808042019CLSC SOLO+CHILD2SS31122999002002001001001001NNN64CLSC SOLO+CHILD     1BEFI  00 N00120
RAX9120720190904201912072019CLSC SOLO+CHILD2SS31122999002002001001001001NNN64CLSC SOLO+CHILD     1BEFI  00 N00103
RAX9311229991307201911072019CLSC SOLO+CHILD2SS31122999002002001001001001NNN64CLSC SOLO+CHILD     1BEFI  00 N00103
RAXS311229990906201706062017ADVANCE        2SS31122999001001001000001000YYY64ADVANCE             1BAFZ 000 N00102
RB1R311229990506201702062017BUSINESS RETURN1RF31122999001001001001000000NNN41BUSINESS RETURN     2NBMW 000 N00109
RB1S311229990506201702062017BUSINESS SINGLE1SF31122999001001001001000000NNN40BUSINESS SINGLE     1NAMW 000 N00109
RB2R311229990506201702062017BUSINESS RETURN2RS31122999001001001001000000NNN41BUSINESS RETURN     2NBMW 000 N00109
RB2S311229990506201702062017BUSINESS SINGLE2SS31122999001001001001000000NNN40BUSINESS SINGLE     1NAMW 000 N00109
RBAO311229992306201721062017ADVANCE        2SS31122999001001001000001000YYY64ADVANCE             1BALA 000 N00117
RBAS311229992305201722052017BUS ANNUAL SEAS2NS31122999001001001000001000NNN00BUS ANNUAL SEASON   0NMTE 000 N00118
RBB4311229992801201307042017BIG BUS 48HR   2SS31122999001000001000001000NNN40BIG BUS 48HR        1NZANN290 N00118
RBBB311229992010201507042017IRS SOLO SLEEP 9SS31122999001000001000001000NNN97IRS SOLO SLEEPER    1NZHA 000 N00120
RBBO311229992306201721062017ADVANCE        2SS31122999001001001000001000YYY64ADVANCE             1BAEB 000 N00117
RBBT311229991712201407042017BIG BUS 24HR   2SS31122999001000001000001000NNN78BIG BUS 24HR        1NZAMN290 N00118
RBC1311229992103201307042017BUSNES CARNET 11RF31122999010010010010000000NNN22BUSNES CARNET 1     2NHMFN000 N00120
RBC2311229992103201307042017BUSINESS CARNET2RS31122999010010010010000000NNN22BUSINESS CARNET     2NHMFN000 N00120
RBCF311229992706201721062017FRIENDS&FAMILY 2RS31122999001001001000001000NYY82FRIENDS&FAMILY      2NBCF 000 N00119
RBCO311229992306201721062017ADVANCE        2SS31122999001000001000001000YYY64ADVANCE             1BALB 000 N00117
RBCP311229991310201711102017ROOM CLEANING  9SP31122999001001001000001000NNN68ROOM CLEANING CHARGE1NZAL 000 N00120
RBCR311229992010201507042017BUSINESS CL RTN1RF31122999001001001000001000NNN80BUSINESS CLS RTN    2NBALY000 N00120
RBCS311229992010201507042017BUSINESS CL SGL1SF31122999001001001000001000NNN76BUSINESS CLS SGL    1NAADN000 N00120
RBD1311229992006201307042017BUSNES CARNET 11RF31122999005005005005000000NNN22BUSNES CARNET 1     2NHMFN000 N00120
RBD2311229992006201307042017BUSINESS CARNET2RS31122999005005005005000000NNN22BUSINESS CARNET     2NHMFN000 N00120
RBDA311229990306201701062017STENA DAY RTN  2RS31122999001001001000001000NNN75STENA DAY RTN       2NBDA 000 N00120
RBDD311229992406201720062017BUSMASTER TERM 2NS31122999001001001000001000NNN00BUSMASTER TERM      0NZWN 000 N00120
RBDO311229992306201721062017ADVANCE        2SS31122999001001001000001000YYY64ADVANCE             1BALC 000 N00117
RBDR311229991111201709112017BUS DAY RETURN 2RS31122999001001001000001000NNN81BUS DAY RETURN      2NZAX 000 N00101
RBDS311229991111201709112017BUS DAY SINGLE 2SS31122999001001001000001000NNN87BUS DAY SINGLE      1NZAO 000 N00101
RBDU170820190106201708082019EMT 1ST UPGRADE1SF31122999001001001000000000NNN96EMT 1ST UPGRADE     1NZDD 000 N00120
RBDU311229991808201907082019EMR 1ST UPGRADE1SF31122999001001001000000000NNN96EMR 1ST UPGRADE     1NZDD 000 N00120
RBED311229991401201007042017TAKE-A-MATE 1ST1RF31122999001001001000001000NNN81TAKE-A-MATE 1ST     2NBFIN000 N00120
RBFO311229992206201721062017ADVANCE 1ST    1SF31122999001001001000001000YYY64ADVANCE 1ST         1BALA 000 N00102
RBFR311229990206201731052017OFF-PEAK 1R    1RF31122999001001001000001000NNY79OFF-PEAK 1R         2NBFP 000 N00103
RBFS311229990206201731052017OFF-PEAK 1S    1SF31122999001001001000001000NNY61OFF-PEAK 1S         1NAFP 000 N00103
RBG1311229990306201701062017BUSINESS GRPSV41RF31122999004004004004000000NNN72BUSINESS GROUPSAVE  2NHJB 000 N00120
RBGO311229992206201721062017ADVANCE 1ST    1SF31122999001001001000001000YYY64ADVANCE 1ST         1BALB 000 N00102
RBHO311229992206201721062017ADVANCE 1ST    1SF31122999001001001000001000YYY64ADVANCE 1ST         1BSFH 000 N00102
RBJD071220191101201829112019VTWC STAFF     2SS31122999001001001000000000NNN64VTWC STAFF          1BADG  00 N00120
RBJD311229990812201918112019AWC STAFF      2SS31122999001001001000000000NNN64AWC STAFF           1BADG  00 N00120
RBK1311229992109201820092018BOOKING.COM 1st1RS31122999001001001000001000NNN81BOOKING.COM 1st     2NHFZ  00 N00120
RBK2311229992109201820092018BOOKING.COM Std2RS31122999001001001000001000NNN81BOOKING.COM Std     2NHFZ  00 N00120
RBMA311229992406201720062017BUSMASTR 52WEEK2NS31122999001001001000001000NNN00BUSMASTER 52 WEEK   0NZWW 000 N00120
RBMB311229992406201720062017BUS+METRO DD M 9NS31122999001001000000001000NNN00BUS+METRO DD M      0NZWV 000 N00118
RBMC311229992406201720062017NBUS DD MTH    2NS31122999001001000000001000NNN00NBUS DD MTH         0NZWM 000 N00118
RBMJ311229990506201702062017BUS MULTI JRNEY2RS31122999001001001000001000NNN27BUS MULTI JRNEY     2NZWM 000 N00120
RBMS311229992305201722052017BUS SEASN 1MNTH2NS31122999001001001000001000NNN00BUS SEASON 1 MONTH  0NMTE 000 N00118
RBOP311229993004200907042017CARNET OFF PEAK2RS31122999001001001000001000NNY80CARNET OFF PEAK     2NHKBN000 N00120
RBOR311229990506201702062017BUS OPEN RETURN9RS31122999001001001000001000NNN49BUS OPEN RETURN     2NZAQ 000 N00120
RBP1311229992506201307042017BUSINESS PLUS S2SS31122999001001001000001000NNN87BUSINESS PLUS S     1NSSUN000NS00118
RBP2311229992506201307042017BUSINESS PLUS R2RS31122999001001001000001000NNN79BUSINESS PLUS R     2NHSUN000NS00118
RBPH311229992502201507042017OP DAY RTN HIGH2RS31122999001001001000001000NNY85OP DAY RTN HIGH     2NBNIN000NS00109
RBPL311229991502201607042017OFF-PEAK DAY R 2RS31122999001001001000001000NNY85OFF-PEAK DAY R      2NBNJN000NS00109
RBPR311229991111201709112017BUS PERIOD RTN 2RS31122999001001001000001000NNN80BUS PERIOD RETURN   2NZAX 000 N00101
RBPS311229990206201731052017ADVANCE        2SS31122999001001001000001000YYY64ADVANCE             1BACB 000 N00102
RBQS311229992305201722052017BUS SEASN 3MNTH2NS31122999001001001000001000NNN00BUS SEASON 3 MONTHS 0NMTE 000 N00118
RBRR311229990406201701062017STDOFFPEAK 1RTN2RS31122999001001001000001000NNY97STDOFFPEAK 1RTN     2BBCG 000 N00120
RBRS311229990206201731052017ADVANCE        2SS31122999001001001000001000YYY64ADVANCE             1BACG 000 N00102
RBS13112299929052015070420171DAY BUS&TRAM  2RS31122999001001001000000000NNN811DAY BUS&TRAM       2NZWMN980 N00120
RBSS311229990206201731052017ADVANCE        2SS31122999001001001000001000YYY64ADVANCE             1BAPL 000 N00102
RBSZ311229990206201731052017ADVANCE        2SS31122999001001001000001000YYY64ADVANCE             1BAPC 000 N00102
RBT13112299923032017070420177DAY BUS&TRAM  9NS31122999001001001000001000NNN007DAY BUS&TRAM       0NZXHN000 N00120
RBT23112299923032017070420171MTH BUS&TRAM  9NS31122999001001001000001000NNN001MTH BUS&TRAM       0NZXJN000 N00120
RBTS311229990206201731052017ADVANCE        2SS31122999001001001000001000YYY64ADVANCE             1BACL 000 N00102
RBUS311229990206201731052017ADVANCE        2SS31122999001001001000001000YYY64ADVANCE             1BACH 000 N00102
RBVR311229991810201717102017OFF-PEAK R     2RS31122999001001001000001000NNY72OFF-PEAK R          2NBPI 000 N00103
RBVS311229990406201701062017OFF-PEAK S     2SS31122999001001001000001000NNY72OFF-PEAK S          1NAPI 000 N00103
RBVV311229992403200407042017BURE VALLEY RLY2RS31122999001000001000001000NNN97BURE VALLEY RLY     2NZWMN000 N00120
RBXS311229990206201731052017ADVANCE        2SS31122999001001001000001000YYY64ADVANCE             1BACK 000 N00102
RBXZ311229990206201731052017ADVANCE        2SS31122999001001001000001000YYY64ADVANCE             1BAPA 000 N00117
RBYS311229990206201731052017ADVANCE        2SS31122999001001001000001000YYY64ADVANCE             1BACC 000 N00102
RBZ1311229993105201726052017BUSNSS ZNE SUPP2SS31122999001001001000000000YYY67BUSNSS ZNE SUPP     1BAMO 000 N00120
RBZ2311229993105201726052017BUSNSS ZNE SUPP2SS31122999001001001000000000YYY67BUSNSS ZNE SUPP     1BAMQ 000 N00120
RBZ9311229992010201507042017DUMY DO NOT USE9SS31122999000000000000000000NNN79DUMMY DO NOT USE    1NZZZN000 N00120
RBZS311229990206201731052017ADVANCE        2SS31122999001001001000001000YYY64ADVANCE             1BACD 000 N00102
RBZT070820190811201807082019ADVANCE        2SS31122999001001001000001000NNN64ADVANCE             1BZZZ 000 N00102
RBZT311229990808201907082019ADVANCE        2SS31122999001001001000001000NNN64ADVANCE             1BACD 000 N00102
RBZZ311229992010201507042017DUMY DO NOT USE9RS31122999000000000000000000NNN79DUMMY DO NOT USE    2NZZZN000 N00120
RC13311229991003200907042017NETWORK 13 WEEK2NS31122999001001001000001000NNN00NETWORK 13 WEEK     0NYTGN980 N00119
RC14311229991604201207042017NETWORK 2WKOFFP2NS31122999001001001000001000NNY00NETWORK 2WKOFFP     0NLTGN980 N00120
RC1R311229990409201830082018EVENNG FARE DAY2RS31122999001001001000001000NNY68EVENING FARE DAY R  2NBFA 000 N00119
RC1S311229993108201714082017ADVANCE        2SS31122999001001001000001000YYY64ADVANCE             1BAEZ 000 N00104
RC1X311229992701201507042017ADVANCE        2SS31122999001001001000001000YYY64ADVANCE             1BHOZN000 N00117
RC28311229992406201720062017NETWORK 4 WEEK 2NS31122999001001001000001000NNN00NETWORK 4 WEEK      0NNTG 980 N00119
RC2R311229990409201830082018EVENING GROUP  2RS31122999005002002002003000NNY68EVENING GROUP       2NBFL 000 N00120
RC2S311229993108201714082017ADVANCE        2SS31122999001001001000001000YYY64ADVANCE             1BANK 000 N00117
RC2W311229992406201723062017OFFP NE2W ADDON2NS31122999001001001000001000NNY00NET 2 WK ADD-ON     0NLTG 980 N00120
RC2X311229992701201507042017ADVANCE        2SS31122999001001001000001000YYY64ADVANCE             1BSOAN000 N00117
RC3S311229993108201714082017ADVANCE        2SS31122999001001001000001000YYY64ADVANCE             1BAFC 000 N00106
RC3X311229992701201507042017ADVANCE        2SS31122999001001001000001000YYY64ADVANCE             1BSOBN000 N00117
RC3Y311229992701201507042017ADVANCE        2SS31122999001001001000001000YYY64ADVANCE             1BSOTN000 N00117
RC4B311229992701201507042017ADVANCE        2SS31122999001001001000001000YYY64ADVANCE             1BSONN000 N00117
RC4S311229993108201714082017ADVANCE        2SS31122999001001001000001000YYY64ADVANCE             1BANL 000 N00117
RC4T311229992106201919062019NET4 W STU ADD 2NS31122999001001001000001000NNN00NET 4 WK STUD ADD-ON0NNTG 980 N00105
RC4W311229993105201730052017NET 4 WK ADD-ON2NS31122999001001001000001000NNN00NET 4 WK ADD-ON     0NNTG 980 N00105
RC4X311229992701201507042017ADVANCE        2SS31122999001001001000001000YYY64ADVANCE             1BSOIN000 N00117
RC4Y311229992701201507042017ADVANCE        2SS31122999001001001000001000YYY64ADVANCE             1BSOUN000 N00117
RC5B311229992701201507042017ADVANCE        2SS31122999001001001000001000YYY64ADVANCE             1BSOON000 N00117
RC5X311229992701201507042017ADVANCE        2SS31122999001001001000001000YYY64ADVANCE             1BSOSN000 N00117
RC5Y311229992701201507042017ADVANCE        2SS31122999001001001000001000YYY64ADVANCE             1BSOVN000 N00117
RC6B311229992701201507042017ADVANCE        2SS31122999001001001000001000YYY64ADVANCE             1BSOPN000 N00117
RC6Y311229992701201507042017ADVANCE        2SS31122999001001001000001000YYY64ADVANCE             1BSOWN000 N00117
RC6Z311229992701201507042017ADVANCE        2SS31122999001001001000001000YYY64ADVANCE             1BSOXN000 N00117
RC7B311229992701201507042017ADVANCE        2SS31122999001001001000001000YYY64ADVANCE             1BSOQN000 N00117
RC7S311229993108201714082017ADVANCE        2SS31122999001001001000001000YYY64ADVANCE             1BAGC 000 N00106
RC7Z311229992701201507042017ADVANCE        2SS31122999001001001000001000YYY64ADVANCE             1BSOYN000 N00117
RC8B311229992701201507042017ADVANCE        2SS31122999001001001000001000YYY64ADVANCE             1BSORN000 N00117
RC8Z311229992701201507042017ADVANCE        2SS31122999001001001000001000YYY64ADVANCE             1BSOZN000 N00117
RCA1311229991510201607042017GA CARNET 1ST  1RF31122999010010010000010000NNN63GA CARNET 1ST       2NKRAN000 N00120
RCA2311229991510201607042017GA CARNET STD  2RS31122999010010010000010000NNN63GA CARNET STD       2NKRAN000 N00120
RCA3311229991806201307042017CARNET SINGLE  2SS31122999010010010010000000NNN24CARNET SINGLE       1NSSAN000 N00120
RCA4311229990402201407042017CARNET SGL 1ST 1SF31122999010010010010000000NNN24CARNET SGL 1ST      1NSSAN000 N00120
RCA5311229992410201819102018ITSO CARNET 5  2RS31122999005005005005000000NNN09ITSO CARNET 5       2NHSQ 000 N00120
RCA6311229992410201819102018ITSO CARNET 10 2RS31122999010010010010000000NNN71ITSO CARNET 10      2NHSR 000 N00120
RCA7311229992410201819102018ITSO CARNET 30 2RS31122999030030030030000000NNN24ITSO CARNET 30      2NHST 000 N00120
RCA8311229992410201819102018ITSO CARNET 50 2RS31122999050050050050000000NNN10ITSO CARNET 50      2NHSV 000 N00120
RCAA311229990106201725052017CARNET 5 STD   2RS31122999005005005005000000NNN80CARNET 5 STD        2NBAK 000 N00120
RCAB311229990106201725052017CARNET 5 FIRST 1RF31122999005005005005000000NNN80CARNET 5 FIRST      2NBAK 000 N00120
RCAC311229990106201725052017CARNET 5 PLUS  1RF31122999005005005005000000NNN80CARNET 5 PLUS       2NBAE 000 S00120
RCAF311229990106201725052017CARNET 10 1ST  1RF31122999010010010010000000NNN63CARNET 10 1ST       2NBAN 000 N00120
RCAG311229990106201725052017CARNET 10 STD  2RS31122999010010010010000000NNN63CARNET 10 STD       2NBAN 000 N00120
RCAH051120191804201905112019Carnet 12 std  2RS31122999012012012012000000NNN80Carnet 12           2NBUG 000 N00120
RCAH121220190611201912122019Flexiseason STD2RS31122999010010010010000000NNN80Flexi season        2NBUG 000 N00120
RCAH170420190106201717042019LEISURE CARNET 2RS31122999010010010010000000NNN63LEISURE CARNET      2NBFN 000 N00120
RCAH311229991312201909122019Flexiseason 10 2RS31122999010010010010000000NNN80Flexi season 10     2NBAP 000 N00120
RCAI311229991112201909122019Flexiseason 20 2RS31122999020020020020000000NNN63Flexi season 20     2NBAB 000 N00120
RCAJ311229991112201909122019Flexi season OP2RS31122999010010010010000000NNN80Flexi season OPK 10 2NBDE 000 N00120
RCAK311229991112201909122019Flexi season OP2RS31122999020020020020000000NNN63Flexi season OPK 20 2NBDX 000 N00120
RCAN311229993105201730052017NET 52WK ADD-ON2NS31122999001001001000000000NNN00NET 52WK ADD-ON     0NMTW 980 N00120
RCAR311229992010201507042017CARNET MIA     2SS31122999001001001001000000NNN80CARNET MIA          1NADCN000 N00120
RCAS311229992708200907042017CARNET 5 STD   2RS31122999005005005005000000NNN63CARNET 5 STD        2NHBFN000 N00120
RCAV311229992708200907042017CARNET 5 1ST   1RF31122999005005005005000000NNN63CARNET 5 1ST        2NHBFN000 N00120
RCB1311229990405199907042017CAB/BERTH  ONE 9SS31122999001000001000001000NNN87CABIN/BERTH FOR ONE 1NZYJN000 N00120
RCBA311229991604201207042017SUP OFFPK DAY R2RS31122999001001001000001000NNY85SUP OFFPK DAY R     2NBLDN000 N00101
RCBB311229993105201725052017SUPER OFFPEAK S2SS31122999001001001000001000NNY62SUPER OFFPEAK S     1NAGB 000 N00101
RCC5311229992410201819102018OP CARNET 5    2RS31122999005005005005000000NNN09OFF PK ITSO CARNET 52NHSW 000 N00120
RCC6311229992410201819102018OP CARNET 10   2RS31122999010010010010000000NNN71OFF PK ITSO CARNET102NHSX 000 N00120
RCC7311229992410201819102018OP CARNET 30   2RS31122999030030030030000000NNN24OFF PK ITSO CARNET302NHSY 000 N00120
RCC8311229992410201819102018OP CARNET 50   2RS31122999050050050050000000NNN10OFF PK ITSO CARNET502NHSZ 000 N00120
RCCB311229993105201726052017CARNET TWELVE  2RS31122999012012012012000000NNN55CARNET TWELVE       2NBBA 000 N00120
RCCR311229990506201731052017SCR CONCESS RTN2RS31122999001001001000001000NNN68SCR CONCESSION RTN  2NBBI 000 N00120
RCCS311229990506201731052017SCR CONCESS SGL2SS31122999001001001000001000NNN68SCR CONCESSION SGL  1NABI 000 N00120
RCDE311229993105201725052017SOCCERBUS SEAS 2NS31122999001001001000001000NNN00SOCCERBUS SEAS      0NHEB 980 N00120
RCDP060420191501201910012019OFF-PEAK DAY R 2RS07042019001001001000001000NNN85OFF-PEAK DAY R      2NBNZ 000 N00104
RCDP140120190901201914012019OFF-PEAK DAY R 2RS31122999001001001000001000NNN85OFF-PEAK DAY R      2NBNZ 000 N00104
RCDP311229990704201914012019OFF-PEAK DAY R 2RS31122999001001001000001000NNN85OFF-PEAK DAY R      2NBNZ 000 N00104
RCDQ311229991904201828022018OFF-PEAK DAY S 2SS31122999001001001000001000NNN88OFF-PEAK DAY S      1NBNY 000 N00104
RCDR311229992305201722052017OFF-PEAK DAY R 2RS31122999001001001000001000NNY85OFF-PEAK DAY R      2NBDY 000 N00104
RCDS311229992305201722052017OFF-PEAK DAY S 2SS31122999001001001000001000NNY88OFF-PEAK DAY S      1NADA 000 N00104
RCE2311229991101201809012018EVENTS PEAK    2SS31122999001001001000001000NNN87EVENTS PEAK         1NAFI 000 N00118
RCEF311229993001201829012018EVENTS PEAK 1  1SF31122999001001001000001000NNN87EVENTS PEAK 1       1NAFI 000 N00118
RCEI311229991001201805012018EVENTS OFF-PEAK1SS31122999001001001000001000NNN87EVENTS OFF PEAK 1   1NAFI 000 N00118
RCES311229991001201805012018EVENTS OFF PK  2SS31122999001001001000001000NNN87EVENTS OFF PK       1NAFI 000 N00118
RCFF311229991108201808082018KIDS R STHEASTN2RS31122999001001000000001000NNY84KIDS R SOUTHEASTERN 2NBFP 000 N00119
RCFP311229991711200907042017RED DOT DAY    2SS31122999001001001000001000NNN87RED DOT DAY         1NHIDN000 N00120
RCFS311229991108201808082018KIDS S STHEASTN2SS31122999001001000000001000NNY87KIDS S SOUTHEASTERN 1NADC 000 N00119
RCFT110220190712201711022019CLUB50 17F.FARE2RP31122999001001001001000000NNY72CLUB50 17F.FARE     2NBEV 000 N00120
RCFT311229991202201911022019CLUB50 17F.FARE2RP31122999001001001001000000NNY72CLUB50 17F.FARE     2NBEV 000 N00120
RCH1311229990111201507042017GWR ITX HI 1ST 1SF31122999001001001000001000YYY64GWR ITX HI 1ST      1BSKCN000 N00120
RCH2311229990111201507042017GWR ITX HI STD 2SS31122999001001001000001000YYY64GWR ITX HI STD      1BSKCN000 N00120
RCHA311229990901201407042017CHARTER STD    2RS31122999001001001000001000YYY93CHARTER STD         2NHCQN000 N00118
RCHR311229990110199907042017CHELT RACES BUS2RS31122999001001001000001000NNN85CHELT RACES BUS     2NZWWN000 N00120
RCL1311229990111201507042017GWR ITX LOW 1ST1SF31122999001001001000001000YYY64GWR ITX LOW 1ST     1BSKAN000 N00120
RCL2311229990111201507042017GWR ITX LOW STD2SS31122999001001001000001000YYY64GWR ITX LOW STD     1BSKAN000 N00120
RCLA3112299920102015070420173-5 ADMIT ONLY 2SS31122999001001000000001000NNN673-5 ADMIT ONLY      1NZWMN000 N00120
RCLS311229991004200207042017CITYLINE PROMO 2RS31122999001001001000001000NNN85CITYLINE PROMO      2NBEYN000 N00120
RCM1311229990111201507042017GWR ITX MED 1ST1SF31122999001001001000001000YYY64GWR ITX MED 1ST     1BSKBN000 N00120
RCM2311229990111201507042017GWR ITX MED STD2SS31122999001001001000001000YYY64GWR ITX MED STD     1BSKBN000 N00120
RCME311229991307201712072017CHILTERN METRO 2RS31122999001001001001000000NNN72CHILTERN METRO      2NBDJ 000 N00120
RCMR311229993105201725052017OFFPEAK CRACKER2RS31122999001001001001000000NNY68OFFPEAK CRACKER     2NBDA 000 N00120
RCN1311229992610201925102019CARNET 5 1ST   1SS31122999005005005005000000NNN63CARNET 5 1ST        1NHBF 000 N00120
RCN2311229992610201925102019CARNET 5 STD   2SS31122999005005005005000000NNN63CARNET 5 STD        1NHBF 000 N00120
RCNE311229992010201507042017CONNECT CARNET 2SS31122999001001001001000000NNN24CONNECT CARNET      1NAAPN000 N00120
RCNF311229990207201107042017CARNET 1ST     1SF31122999001001001001000000NNN31CARNET 1ST          1NAFAN000 N00120
RCNM311229990306201701062017CNM STUDENT    2SS31122999001001001000000000YYY64CNM STUDENT         1BAFZ 000 N00120
RCNP311229992010201507042017CARNET PEAK    2SS31122999001001001001000000NNN24CARNET PEAK         1NATVN000 N00120
RCNR311229991706200807042017CONCESSION RTN 2RS31122999001001001000001000NNN68CONCESSION RETURN   2NBPPN000 N00120
RCNS311229991706200807042017CONCESSION SGL 2SS31122999001001001000001000NNN68CONCESSION SINGLE   1NAGVN000 N00120
RCNT311229992010201507042017CARNET         2SS31122999001001001001000000NNN31CARNET              1NAFAN000 N00120
RCO1311229990202201831012018CORP OFF-PEAK 11RS31122999001001001000001000NNN72CORP OFF-PEAK 1R    2NHIF 000 N00120
RCO2311229991002201809022018CORP OFF-PEAK  2RS31122999001001001000001000NNN72CORP OFF-PEAK       2NHIF 000 N00120
RCO3080420192103201908042019CARNET PEAK STD2SS31122999005005005005000000NNN63CARNET PK STD       1NKRA 000 N00120
RCO3190220191212201819022019GA CARNET STD  2RS31122999010010010000010000NNN63CARNET PK STD       2NKRA 000 N00120
RCO3200120200904201920012020GRAB&GO PK STD 2SS31122999005005005005000000NNN63GRAB &GO ANYTIME STD1NKRA 000 N00120
RCO3200320192002201920032019CARNET PEAK STD2RS31122999010010010000010000NNN63CARNET PK STD       2NKRA 000 N00120
RCO3311229992101202017012020GRAB&GO PK STD 2RS31122999005005005005000000NNN63GRAB &GO ANYTIME STD2NKRA 000 N00120
RCO4170420192002201917042019CARNET OFFPEAK 2SS31122999010010010000010000NNN63CARNET OFFPEAK      1NAVM 000 N00120
RCO4190220191212201819022019CARNET OFFPEAK 2SS31122999001001001000000000NNN24CARNET OFFPEAK      1NAVM 000 N00120
RCO4200120201804201920012020GRAB&GO OFFPEAK2SS31122999010010010000010000NNN63GRAB & GO OFF-PEAK  1NAVM 000 N00120
RCO4311229992101202017012020GRAB&GO OFFPEAK2RS31122999005005005005000000NNN63GRAB & GO OFF-PEAK  2NAVM 000 N00120
RCO5040720191207201204072019CARNET OFFPK 5 2SS31122999001001001000001000NNY24CARNET OFFPK 5      1NAVA 000 N00120
RCO5311229990507201903072019CARNET OFFPK 5 2SS31122999001001001000001000NNY24CARNET OFFPK 5      1NAVA 000 N00120
RCO6080420192103201908042019CARNET PEAK 1ST1SS31122999005005005005000000NNN63CARNET PK 1ST       1NKRA 000 N00120
RCO6120720190904201912072019GRAB&GO PEAK1ST1SS31122999005005005005000000NNN63GRAB &GO ANYTIME 1ST1NKRA 000 N00120
RCO6200320192702201920032019CARNET PEAK 1ST1RS31122999010010010000010000NNN63CARNET PK 1ST       2NKRA 000 N00120
RCO6300720191307201930072019GRAB&GO PEAK1ST1RS31122999001001001001000000NNN63GRAB &GO ANYTIME 1ST2NKRA 000 N00120
RCO6311229993107201929072019GRAB&GO PEAK1ST1RS31122999005005005005000000NNN63GRAB &GO ANYTIME 1ST2NKRA 000 N00120
RCO7311229991701202015012020ITSO CARNET 10 2RS31122999010010010010000000NNN71ITSO CARNET 10      2NHSR 000 N00120
RCO8311229991701202015012020ITSO CARNET 30 2RS31122999030030030030000000NNN24ITSO CARNET 30      2NHST 000 N00120
RCO9311229991701202015012020ITSO CARNET 50 2RS31122999050050050050000000NNN10ITSO CARNET 50      2NHSV 000 N00120
RCOA311229991008201507042017GC COMP 1ST    1SF31122999001001001001000000YYY64GC COMP 1ST         1BBNKN000 N00120
RCOB311229991008201507042017GC COMP STD    2SS31122999001001001001000000YYY64GC COMP STD         1BBNKN000 N00120
RCOH311229991805200307042017COACH LINK     2RS31122999001001001000001000NYN97COACH LINK          2NBEON000 N00120
RCOL311229990306201701062017STH COMPRTN 1ST1RF31122999001001001000000000YNN72STH COMP RTN 1ST    2NHKN 000 N00120
RCOM311229990306201701062017STH COMPRTN STD2RS31122999001001001000000000YNN72STH COMP RTN STD    2NHKN 000 N00120
RCOP311229992010201507042017CARNET OFFPEAK 2SS31122999001001001000000000NNY24CARNET OFFPEAK      1NAVMN000 N00120
RCOR311229992404200707042017WAG CONCES RTN 2RS31122999001001001000001000NNN68WAG CONCES RTN      2NHLAN000 N00120
RCOS311229992404200707042017WAG CONCES SGL 2SS31122999001001001000001000NNN88WAG CONCES SGL      1NSLEN000 N00120
RCP1311229990602201805022018CORP ANYIME 1R 1RS31122999001001001000001000NNN72CORPORATE ANYTIME 1R2NHIF 000 N00120
RCP2311229990602201805022018CORP ANYTIME   2RS31122999001001001000001000NNN72CORPORATE ANYTIME   2NHIF 000 N00120
RCP5040720191207201204072019CARNET PEAK 5  2SS31122999001001001000001000NNY24CARNET PEAK 5       1NATA 000 N00120
RCP5311229990507201903072019CARNET PEAK 5  2SS31122999001001001000001000NNY24CARNET PEAK 5       1NATA 000 N00120
RCPF311229990106201725052017CORPORATE 1ST  1RF31122999001001001000000000NNN72CORPORATE 1ST       2OBUC 000 N00120
RCPP311229992010201507042017CARNET PEAK    2RS31122999001001001001000000NNN63CARNET PEAK         2NTQAN000 N00120
RCPR311229992512200607042017CHEAP PARK RIDE2RS31122999001001001000001000NNN93CHEAP PARK RIDE     2NBDXN000 N00120
RCPS311229990106201725052017CORPORATE STD  2RS31122999001001001000000000NNN72CORPORATE STD       2OBUC 000 N00120
RCQP311229992010201507042017CARNET OFF-PEAK2RS31122999001001001000000000NNN63CARNET OFF-PEAK     2NYQAN000 N00120
RCR1311229991906201207042017CHARTER RTN 1ST1RF31122999001001001000001000YYY81CHARTER RTN 1ST     2NBCTN000 N00120
RCR2311229991906201207042017CHARTER RTN STD2RS31122999001001001000001000YYY85CHARTER RTN STD     2NBCTN000 N00120
RCRF311229991810201711102017BUSINESS RETURN1RS31122999001001001001000000NNN41BUSINESS RETURN 1st 2NBNU 000 N00120
RCRT311229991103201107042017CARNET RETURN  2RS31122999001001001001000000NNN28CARNET RETURN       2NFGWN000 N00120
RCRU311229991810201711102017BUSINESS RETURN2RS31122999001001001001000000NNN41BUSINESS RETURN STD 2NBNU 000 N00120
RCS1080120190506201708012019SLEEPSUPP FIRST1SF31122999001001001000001000NNN97SLEEPSUPP FIRST     1NZHA 000 N00105
RCS2080120190506201708012019SLEEPERSUPP STD2SS31122999001001001000001000NNN97SLEEPERSUPP STD     1NZHA 000 N00120
RCSA311229992406201720062017NET STUD ADD-ON2NS31122999001001001001000000NNN00NET STUD ADD-ON     0NMTE 980 N00120
RCSD311229992205201819032018Carnet Day R   2RS31122999001001001001000000NNN23Carnet Day Return   2NHYM  00 N00120
RCSE311229992205201814052018Carnet Day TC  2RS31122999001001001001000000NNN23Carnet Day TC       2NBHG  00 N00120
RCSF311229991810201711102017BUSINESS SINGLE1SS31122999001001001001000000NNN40BUSINESS SINGLE 1st 1NBNT 000 N00120
RCST311229992305201722052017CYCLESEASON    2NS31122999001001001000001000NNN00CYCLE SEASON        0NZVC 000 N00120
RCSU311229991810201711102017BUSINESS SINGLE2SS31122999001001001001000000NNN40BUSINESS SINGLE STD 1NBNT 000 N00120
RCT1311229990405199907042017RSVN CONTROL   9SS31122999001000001000001000NNN87SEA CONTROL TICKET  1NZYSN000 N00120
RCTA311229992806201926062019NET STU 4 WK AD2NS31122999001001001000001000NNN00NET STUD 4 WK ADD-ON0NNTG 980 N00105
RCTM311229992406201720062017NETWORK CH TERM2NS31122999001001000000001001NNN00NETWORK CH TERMRM   0NYTG 980 N00119
RCTR020120200309201902012020CONC CHILD RTRN2RS31122999001001000000001000NNN68CONCES CHILD RETURN 2NHLV 000 N00119
RCTR150120200301202015012020CONC CHILD RTRN2RS31122999001001000000001000NNN41TFW CONC CHILD RTRN 2NHLV 000 N00119
RCTR311229991601202010012020UNDER 11 RETURN2RS31122999001001000000001000NNN41TFW CONC CHILD RTRN 2NHLV 000 N00119
RCTS020120200309201902012020CONCCHILDSINGLE2SS31122999001001000000001000NNN88CONCES CHILD SINGLE 1NHLW 000 N00119
RCTS150120200301202015012020CONCCHILDSINGLE2SS31122999001001000000001000NNN88TFW CONC CHILD SNGLE1NHLW 000 N00119
RCTS311229991601202010012020UNDER 11 SINGLE2SS31122999001001000000001000NNN88TFW CONC CHILD SNGLE1NHLW 000 N00119
RCTW311229990511201507042017NET TERM ADD-ON2NS31122999001001000000001001NNN00NET TERM ADD-ON     0NYTGN980 N00119
RCU1311229990202201831012018CORP SUPER OPK 1RS31122999001001001000001000NNN72CORP SUPER OFF PEAK 2NHIF 000 N00120
RCU2311229990202201831012018CORP SUPER OPK 2RS31122999001001001000001000NNN72CORP SUPER OFF PEAK 2NHIF 000 N00120
RCWR311229991606201607042017WALLY ROVER    2RS31122999001001001000001000NNY85WALLY ROVER         2NHKPN000NS00118
RCWS311229991606201607042017WALLY ROVER SRN2RS31122999001001001000001000NNY85WALLY ROVER SRN     2NHKQN000NS00118
RCYC311229990405199907042017CYCLE FEE      2SS31122999001001001000001000NNN87CYCLE FEE           1NZVCN000 N00120
RCZS311229993105201725052017ZOO STUDENT    2RS31122999001001001000001000NNY85ZOO STUDENT         2NHEC 000 N00120
RDAA311229990406201701062017DTPR PLUS      2SS31122999001001001000001000NNY88DTPR PLUS           1NZAY 000 N00119
RDAF311229990406201701062017FAM DTPR PLUS  2SS31122999006002002001005001NNY88FAM DTPR PLUS       1NZAY 000 N00119
RDAS311229990306201701062017ADVANCE 1ST    1SF31122999001001001000001000YYY64ADVANCE 1ST         1BSJD 000 N00117
RDBS311229990306201701062017ADVANCE 1ST    1SF31122999001001001000001000YYY64ADVANCE 1ST         1BSJE 000 N00117
RDCS311229990306201701062017ADVANCE 1ST    1SF31122999001001001000001000YYY64ADVANCE 1ST         1BSJF 000 N00117
RDDO311229991805200807042017DUBLIN DAY OUT 2RS31122999001001001000001000NNN65DUBLIN DAY OUT      2NBDYN000 N00118
RDDS311229990306201701062017ADVANCE 1ST    1SF31122999001001001000001000YYY64ADVANCE 1ST         1BSJQ 000 N00117
RDEF311229990406201701062017DTPR FAM EXCH  2SS31122999006002002001005001NNY88DTPR FAM EXCH       1NBDY 000 N00120
RDES311229990306201701062017ADVANCE 1ST    1SF31122999001001001000001000YYY64ADVANCE 1ST         1BSJP 000 N00117
RDF1311229992009201817092018ADVANCE 1ST    1SF31122999001001001000001000YYY64ADVANCE 1ST         1BHDM 000 N00117
RDF2311229992009201817092018ADVANCE 1ST    1SF31122999001001001000001000YYY64ADVANCE 1ST         1BHDN 000 N00117
RDF3311229992009201817092018ADVANCE 1ST    1SF31122999001001001000001000YYY64ADVANCE 1ST         1BHDO 000 N00117
RDF4311229990706201705062017ADVANCE 1ST    1SF31122999001001001000001000YYY64ADVANCE 1ST         1BHDP 000 N00117
RDF5311229990706201705062017ADVANCE 1ST    1SF31122999001001001000001000YYY64ADVANCE 1ST         1BHDQ 000 N00117
RDF6311229990706201705062017ADVANCE 1ST    1SF31122999001001001000001000YYY64ADVANCE 1ST         1BHDR 000 N00117
RDFS311229990306201701062017ADVANCE 1ST    1SF31122999001001001000001000YYY64ADVANCE 1ST         1BSJA 000 N00117
RDG0311229992203201821032018ADVANCE        2SS31122999001001001000001000NNN64ADVANCE             1BSDM 000 N00102
RDG1311229992609201722092017ADVANCE        2SS31122999001001001000001000YYY64ADVANCE             1BSDA 000 N00102
RDG2311229992609201722092017ADVANCE        2SS31122999001001001000001000YYY64ADVANCE             1BSDB 000 N00102
RDG3311229992609201722092017ADVANCE        2SS31122999001001001000001000YYY64ADVANCE             1BSDC 000 N00102
RDG4311229992609201722092017ADVANCE        2SS31122999001001001000001000YYY64ADVANCE             1BSDG 000 N00102
RDG5311229992609201722092017ADVANCE        2SS31122999001001001000001000YYY64ADVANCE             1BSDH 000 N00102
RDG6311229992609201722092017ADVANCE        2SS31122999001001001000001000YYY64ADVANCE             1BSDI 000 N00102
RDG7311229992609201722092017ADVANCE        2SS31122999001001001000001000YYY64ADVANCE             1BSDJ 000 N00102
RDG8311229992609201722092017ADVANCE        2SS31122999001001001000001000YYY64ADVANCE             1BSDK 000 N00102
RDG9311229992609201722092017ADVANCE        2SS31122999001001001000001000YYY64ADVANCE             1BSDL 000 N00102
RDGQ311229991107201928062019ADVANCE        2SS31122999001001001000001000NNN64ADVANCE             1BSDN 000 N00119
RDGS311229990306201701062017ADVANCE 1ST    1SF31122999001001001000001000YYY64ADVANCE 1ST         1BSJB 000 N00102
RDH1180420192703201918042019THE BIG EASY   2RS31122999001001001000000000NNN28THE BIG EASY        2OHFQ  00 S00120
RDH1260320191602201926032019THE BIG EASY   2RS31122999001001001000000000NNN28THE BIG EASY        2OHFQ  00 S00111
RDH1311229991904201917042019THE BIG EASY   2RS31122999001001001000000000NNN13THE BIG EASY        2OHFQ  00 S00120
RDHS311229990306201701062017ADVANCE 1ST    1SF31122999001001001000001000YYY64ADVANCE 1ST         1BSJC 000 N00117
RDJS311229990306201701062017ADVANCE 1ST    1SF31122999001001001000001000YYY64ADVANCE 1ST         1BSKJ 000 N00117
RDKS230520190306201723052019ADVANCE 1ST    1SF31122999001001001000001000YYY64ADVANCE 1ST         1BSKK 000 N00117
RDKS311229992405201921052019GWR SEATFROG 1 1SF31122999001001001000001000YYY64GWR SEATFROG 1      1NSKK 000 N00120
RDLS230520190306201723052019ADVANCE 1ST    1SF31122999001001001000001000YYY64ADVANCE 1ST         1BSKL 000 N00117
RDLS311229992405201921052019GWR SEATFROG 2 1SF31122999001001001000001000YYY64GWR SEATFROG 2      1NSKL 000 N00120
RDPC311229991103200407042017DAILY CARPARK  9SP31122999001000001000001000NNN97DAILY CARPARK       1NZVBN000 N00120
RDPS311229990306201701062017ADVANCE        2SS31122999001001001000001000YYY96ADVANCE             1BSYG 000 N00102
RDRG311229990206201731052017DALESRAIL DUO  2RS31122999004002002002002000NNN85DALESRAIL DUO       2NEDA 000 N00120
RDRI311229990206201731052017DALESRAIL CDR  2RS31122999001000001000001000NNY85DALESRAIL CDR       2NBDA 000 N00102
RDRS311229991604201207042017SPECIAL CDR    2RS31122999001001001000001000NNY85SPECIAL CDR         2NBEWN000 N00104
RDS1311229992805201725052017DAYSAVE        2NS31122999001001001000001000NNN00DAYSAVE             0NBDG 290 N00120
RDS4311229992805201725052017DAYSAVE 4      2NS31122999001001001000000000NNN00DAYSAVE 4           0NBDF 290 N00120
RDSD311229990508201107042017DAY RANGER     2SS31122999001001001000001000NNN87DAY RANGER          1NSYGN000 N00120
RDST311229993004201607042017FLEXIDAY SEASON2RS31122999001001001001000000NNN55FLEXIDAY SEASON     2NHTNN000 N00120
RDTA311229992706201721062017DTPR ADD-ON    2RS31122999001001001000001000NNN85DTPR ADD-ON         2NZAY 000 N00118
RDTE311229992706201721062017DTPR EXCHANGE  2SS31122999001001001000001000NNY88DTPR EXCHANGE       1NBDY 000 N00120
RDTF311229992706201721062017FAM DTPR ADD-ON2RS31122999006002002001005001NNY85FAM DTPR ADD-ON     2NZAY 000 N00120
RDTP311229992005201814052018OPEAK ODT+     2RS31122999001001001000001000NNY81OPEAK ODT+          2NHXB 980 N00104
RDUO311229992505201724052017GRT ANGLIA DUO 2RS31122999002002002002000000NNY85GRT ANGLIA DUO      2NBDS 000 N00120
RDUS311229992605201724052017DUO SINGLE     2SS31122999002002002002000000NNN61DUO SINGLE          1NSSP 000 N00120
RE18080420190706201808042019FIXED SOLO+CHLD1SS31122999002002001001001001NNN64CLUB FIXED SOLO+CHLD1BEFJ 000 N00120
RE18311229990904201905042019FIXED SOLO+CHLD1SS31122999002002001001001001NNN64CLUB FIXED SOLO+CHLD1BEFJ 000 N00117
RE19080420190706201808042019FIXED SOLO+CHLD1SS31122999002002001001001001NNN64CLUB FIXED SOLO+CHLD1BEFK 000 N00120
RE19311229990904201905042019FIXED SOLO+CHLD1SS31122999002002001001001001NNN64CLUB FIXED SOLO+CHLD1BEFK 000 N00117
RE1R311229990712201705122017ANYTIME R      2RS31122999001001001000001000NNN41ANYTIME R           2NBUF 000 N00101
RE1S311229990712201705122017ANYTIME S      2SS31122999001001001000001000NNN40ANYTIME S           1NACM 000 N00101
RE20080420190201201808042019FIXED SOLO+CHLD1SF31122999002002001001001001YYY64CLUB FIXED SOLO+CHLD1BETA 000 N00120
RE20311229990904201905042019FIXED SOLO+CHLD1SF31122999002002001001001001YYY64CLUB FIXED SOLO+CHLD1BETA 000 N00117
RE21080420190201201808042019FIXED SOLO+CHLD1SF31122999002002001001001001YYY64CLUB FIXED SOLO+CHLD1BETB 000 N00120
RE21311229990904201905042019FIXED SOLO+CHLD1SF31122999002002001001001001YYY64CLUB FIXED SOLO+CHLD1BETB 000 N00117
RE22080420190201201808042019FIXED SOLO+CHLD1SF31122999002002001001001001YYY64CLUB FIXED SOLO+CHLD1BETC 000 N00120
RE22311229990904201905042019FIXED SOLO+CHLD1SF31122999002002001001001001YYY64CLUB FIXED SOLO+CHLD1BETC 000 N00117
RE23080420190201201808042019FIXED SOLO+CHLD1SF31122999002002001001001001YYY64CLUB FIXED SOLO+CHLD1BETD 000 N00120
RE23311229990904201905042019FIXED SOLO+CHLD1SF31122999002002001001001001YYY64CLUB FIXED SOLO+CHLD1BETD 000 N00117
RE24080420190201201808042019FIXED SOLO+CHLD1SF31122999002002001001001001YYY64CLUB FIXED SOLO+CHLD1BETE 000 N00120
RE24311229990904201905042019FIXED SOLO+CHLD1SF31122999002002001001001001YYY64CLUB FIXED SOLO+CHLD1BETE 000 N00117
RE2R311229990712201705122017ANYTIME DAY R  2RS31122999001001001000001000NNN81ANYTIME DAY R       2NBAO 000 N00101
RE2S311229990712201705122017ANYTIME DAY S  2SS31122999001001001000001000NNN87ANYTIME DAY S       1NACN 000 N00101
RE3R311229990712201705122017ANYTIME SHORT R2RS31122999001001001000001000NNN13ANYTIME SHORT R     2NBVC 000 N00101
RE40311229991310201711102017FIXD CB FAM 2 R1SF31122999004003002001003001YYY64FIXD CLB FAM 2 ROOMS1BETF 000 N00120
