/!! Start of file                                                               
/!! Content type:  TVL                                                          
/!! Sequence:      472                                                          
/!! Records:       105                                                          
/!! Generated:     04/02/2020                                                   
/!! Exporter:      RJIS RjEhrFrs v 4.6.5                                        
003112299901031991(USE SEASON)        000000000000  YY(USE SEASON)  (USE SEASON)  
013112299901031991THREE DAYS          000000000000  YYTHREE DAYS    THREE DAYS    
023112299901031991THREE MONTHS        000000000000  YYTHREE MONTHS  THREE MONTHS  
033112299901031991ONE MONTH           000000000000  YYONE MONTH     ONE MONTH     
043112299901031991AS ADVERTISED       000000000000  YYAS ADVERTISED AS ADVERTISED 
053112299901031991WITH TKT NO.        000000000000  YYWITH TKT NO.  WITH TKT NO.  
063112299924052018ON DATE SHOWN       010001000000  YYON DATE SHOWN ON DATE SHOWN 
0731122999260120111DYOUT 2MTHRTN      010000020000  YY1DYOUT 2MTHRTN1DYOUT 2MTHRTN
083112299901031991NOT FOR TRAVEL      000000000000  YYNOT FOR TRAVELNOT FOR TRAVEL
093112299927102017TWO WEEK            140000000000  NNTWO WEEK      INVALID       
103112299927102017SIX MONTH           000600000000  NNSIX MONTH     INVALID       
112201202023032019INVALID             010000010000  NNBOOKEDTRANONLYANY TRAIN     
112203201930032007INVALID             000000000000  YYINVALID       INVALID       
113112299923012020AS ADVERTISED       010001000000  NNBOOKDTRAINONLYON DATE SHOWN 
123112299930032007INVALID             000000000000  YYINVALID       INVALID       
1331122999140820071DYOUT 1MTHRTN      010000010000  YY1DYOUT 1MTHRTN1DYOUT 1MTHRTN
143112299930032007INVALID             000000000000  YYINVALID       INVALID       
153112299930032007INVALID             000000000000  YYINVALID       INVALID       
163112299930032007INVALID             000000000000  YYINVALID       INVALID       
173112299929032017BOOKEDTRAINONLY     010001000000  NNBOOKDTRAINONLYBOOKDTRAINONLY
183112299918062010THREE DAYS          030003000000  YYTHREE DAYS    THREE DAYS    
193112299921062010FOUR DAYS           040004000000  YYFOUR DAYS     FOUR DAYS     
203112299930092014NOT FRI-SUN         010000010000  NYNOT FRI-SUN   NOT FRI-SUN   
210602201930092014INVALID             000000000000  YYINVALID       INVALID       
213112299907022019FIVE DAYS           050005000000  YYFIVE DAYS     FIVE DAYS     
223112299911072006ONE YEAR            001200120000  NNONE YEAR      ONE YEAR      
233112299913042018SWR CARNET 2 MONTHS 000200020000  YY2 MONTHS      2 MONTHS      
2431122999030420143 MONTHS            000300030000  NN3 MONTHS      INVALID       
253112299929092016SEE RESTRICTNS      010014000000  YYSEE RESTRICTNSSEE RESTRICTNS
262611201916122014INVALID             000000000000  YYINVALID       INVALID       
263112299927112019BOOKEDTRAINONLY     010000010000  NNBOOKDTRAINONLYBOOKDTRAINONLY
273112299917082010ONE WEEK            070007000000  YYONE WEEK      ONE WEEK      
283112299926072010ONE MONTH           010000010000  YYONE MONTH     ONE MONTH     
293112299920052018OUTDAY1 RTNDAY2     010002000000  NNON DATE SHOWN BEFORE 1200   
303112299930092014INVALID             000000000000  YYINVALID       INVALID       
313112299901072011ONE YEAR            001200000000  YNONE YEAR      INVALID       
323112299926012011ONE MONTH           050000010100  NNFIVE DAYS     ONE MONTH     
333112299902092012AS ADVERTISED       010008000000  NYAS ADVERTISED AS ADVERTISED 
343112299916082010OUT D1 RTN 4-30     010030000400  NYOUT 1 RTN 4-30OUT 1 RTN 4-30
353112299907052014OUTDAY1 RTNDAY2     010002000000  YYOUTDAY1RTNDAY2OUTDAY1RTNDAY2
363112299907052014TWO DAYS            020002000000  YYTWO DAYS      TWO DAYS      
373112299930092014INVALID             000000000000  YYINVALID       INVALID       
383112299911062012WITH SEASON         070000000000  NNWITH SEASON   INVALID       
393112299930092014INVALID             000000000000  YYINVALID       INVALID       
403112299912092011TWO DAYS            020000000000  YNTWO DAYS      INVALID       
413112299916032009ONE MONTH           050000010000  YYFIVE DAYS     ONE MONTH     
423112299926022015AS ADVERTISED       030003000000  NNAS ADVERTISED AS ADVERTISED 
433112299921052009VIRGIN TRAVELER     010000000000  NNVT TRAVELLER  INVALID       
443112299902072010TWO DAYS            020002000000  NNTWO DAYS      TWO DAYS      
453112299923032005VIRGIN TRAVELER     010004000000  NNVT TRAVELLER  VT TRAVELLER  
463112299905122007OUT1DAY RTN7DYS     010007000000  NYON DATE SHOWN SEVEN DAYS    
473112299926052018Two days            010002000000  NYOne day       Two days      
483112299926052018Three days          010003000000  NYOne day       Three days    
493112299915062016FIVE DAY RTN        010005000400  YYOUT ON WED    RTN ON SUN    
503112299901112001SEE REVERSE         010000000000  YNSEE REVERSE   SEE REVERSE   
513112299902112002WITH TKT NO.        000100010000  YYWITH TKT NO.  WITH TKT NO.  
523112299930092014INVALID             000000000000  YYINVALID       INVALID       
533112299909122002AS ADVERTISED       010004000000  YYAS ADVERTISED AS ADVERTISED 
543112299926052018Four days           010004000000  NYOne day       Four days     
553112299926102001SIX MONTHS          000600060000  YYSIX MONTHS    SIX MONTHS    
563112299911082014OUT1DAY RTN3DYS     010003000000  NNON DATE SHOWN THREE DAYS    
573112299919022002OUT1DAY RTN4DYS     010004000100  YYON DATE SHOWN FOUR DAYS     
583112299930092014INVALID             000000000000  YYINVALID       INVALID       
593112299926022015testy               010003000100FRNYone day       FriSatSun ONLY
603112299907092007BOOKEDTRAINONLY     010000010000  NNBOOKDTRAINONLYBOOKDTRAINONLY
613112299919122000ON DATE SHOWN       010000000000  NNON DATE SHOWN INVALID       
623112299919122000ON DATE SHOWN       010000000000  YNON DATE SHOWN INVALID       
633112299919122000THREE MONTHS        000300030000  YYTHREE MONTHS  THREE MONTHS  
643112299917082007BOOKEDTRAINONLY     010000000000  NNBOOKDTRAINONLYINVALID       
653112299919122000AS ADVERTISED       010002000000  YYAS ADVERTISED AS ADVERTISED 
663112299920112014BOOKEDTRAINONLY     020000000000  NNBOOKDTRAINONLYINVALID       
673112299919122000NOT FOR TRAVEL      010000000000  NNNOT FOR TRAVELINVALID       
683112299919122000AS ADVERTISED       010001000000  YYAS ADVERTISED AS ADVERTISED 
693112299930092014INVALID             000000000000  YYINVALID       INVALID       
703112299928062007AS ADVERTISED       020002000000  NYAS ADVERTISED AS ADVERTISED 
713112299905112007ONE MONTH           000100000000  NNONE MONTH     INVALID       
723112299919122000AS ADVERTISED       010000010000  YYAS ADVERTISED AS ADVERTISED 
733112299923052001THREE DAYS          030003000000  YYTHREE DAYS    THREE DAYS    
743112299930092014INVALID             000000000000  YYINVALID       INVALID       
753112299925072007AS ADVERTISED       010002000000  NYAS ADVERTISED AS ADVERTISED 
763112299919122000AS ADVERTISED       010000000000  YNON DATE SHOWN INVALID       
773112299919122000ON DATE SHOWN       010001000000  NNON DATE SHOWN ON DATE SHOWN 
783112299928062007ONE DAY             010001000000  YYONE DAY       ONE DAY       
793112299919122000AS ADVERTISED       010000010000  NNAS ADVERTISED AS ADVERTISED 
803112299919122000ONE MONTH           000100010000  YYONE MONTH     ONE MONTH     
813112299919122000ON DATE SHOWN       010001000000  YYON DATE SHOWN ON DATE SHOWN 
823112299905062002WITH SEASON         010001000000  YYWITH SEASON   WITH SEASON   
833112299920112014NO_CHANGE_GIVN      010000000000  YNNO_CHANGE_GIVNINVALID       
843112299919122000SEE RESTRICTNS      010000010000  NYSEE RESTRICTNSSEE RESTRICTNS
853112299919122000SEE RESTRICTNS      010001000000  YYSEE RESTRICTNSSEE RESTRICTNS
863112299911022003OUT1DAY RTN5DYS     010005000000  NYON DATE SHOWN FIVE DAYS     
873112299919122000ON DATE SHOWN       010000000000  YNON DATE SHOWN INVALID       
883112299919122000SEE RESTRICTNS      010000000000  YNSEE RESTRICTNSINVALID       
893112299919122000SEE RESTRICTNS      010010000000  YYSEE RESTRICTNSSEE RESTRICTNS
903112299919122000TERM TIME ONLY      000000000000  YYTERM TIME ONLYTERM TIME ONLY
913112299919122000TWO MONTHS CIV      000200000000  YNTWO MONTHS CIVINVALID       
9231122999140320111DYOUT 2MTHRTN      010000020000  YYONE DAY CIV   TWO MONTHS CIV
933112299919122000AS ADVERTISED       010001000000  NNAS ADVERTISED AS ADVERTISED 
943112299920122007ONE MONTH           000100010000  NNONE MONTH     ONE MONTH     
950611201930092014INVALID             000000000000  YYINVALID       INVALID       
953112299907112019EIGHT DAYS          080000000000  YYEIGHT DAYS    EIGHT DAYS    
963112299919122000AS ADVERTISED       010000000000  NNAS ADVERTISED INVALID       
973112299919122000AS ADVERTISED       010000010000  NYAS ADVERTISED AS ADVERTISED 
983112299911022003AS ADVERTISED       010000010000SAYYAS ADVERTISED AS ADVERTISED 
993112299916102001AS ADVERTISED       000100010000  YYAS ADVERTISED AS ADVERTISED 
/!! End of file (04/02/2020)